{
  "contractName": "AddressStorage",
  "abi": [
    {
      "constant": true,
      "inputs": [
        {
          "internalType": "bytes32",
          "name": "_key",
          "type": "bytes32"
        }
      ],
      "name": "getAddress",
      "outputs": [
        {
          "internalType": "address",
          "name": "",
          "type": "address"
        }
      ],
      "payable": false,
      "stateMutability": "view",
      "type": "function"
    }
  ],
  "bytecode": "0x608060405234801561001057600080fd5b50610109806100206000396000f3fe6080604052348015600f57600080fd5b506004361060285760003560e01c806321f8a72114602d575b600080fd5b605660048036036020811015604157600080fd5b81019080803590602001909291905050506098565b604051808273ffffffffffffffffffffffffffffffffffffffff1673ffffffffffffffffffffffffffffffffffffffff16815260200191505060405180910390f35b600080600083815260200190815260200160002060009054906101000a900473ffffffffffffffffffffffffffffffffffffffff16905091905056fea265627a7a72315820fad902a7d531e8b0e50aabc2ece82bbd52a0baa8453fc9cb493986cbaa98831f64736f6c634300050c0032",
  "source": "pragma solidity ^0.5.0;\r\n\r\ncontract AddressStorage {\r\n    mapping(bytes32 => address) private addresses;\r\n\r\n    function getAddress(bytes32 _key) public view returns (address) {\r\n        return addresses[_key];\r\n    }\r\n\r\n    function _setAddress(bytes32 _key, address _value) internal {\r\n        addresses[_key] = _value;\r\n    }\r\n\r\n}\r\n",
  "sourcePath": "C:\\Users\\tredg\\aave_flash\\contracts\\configuration\\AddressStorage.sol",
  "compiler": {
    "name": "solc",
    "version": "0.5.12+commit.7709ece9.Emscripten.clang"
  },
  "schemaVersion": "3.0.18",
  "updatedAt": "2019-11-11T21:45:25.029Z",
  "devdoc": {
    "methods": {}
  },
  "userdoc": {
    "methods": {}
  }
}