{
  "contractName": "FlashLoanReceiverArb",
  "abi": [
    {
      "inputs": [
        {
          "internalType": "contract LendingPoolAddressesProvider",
          "name": "_provider",
          "type": "address"
        }
      ],
      "payable": false,
      "stateMutability": "nonpayable",
      "type": "constructor"
    },
    {
      "payable": true,
      "stateMutability": "payable",
      "type": "fallback"
    },
    {
      "constant": false,
      "inputs": [
        {
          "internalType": "address",
          "name": "_reserve",
          "type": "address"
        },
        {
          "internalType": "uint256",
          "name": "_amount",
          "type": "uint256"
        },
        {
          "internalType": "uint256",
          "name": "_fee",
          "type": "uint256"
        }
      ],
      "name": "executeOperation",
      "outputs": [
        {
          "internalType": "uint256",
          "name": "returnedAmount",
          "type": "uint256"
        }
      ],
      "payable": false,
      "stateMutability": "nonpayable",
      "type": "function"
    }
  ],
  "bytecode": "0x608060405234801561001057600080fd5b50604051610cd7380380610cd78339818101604052602081101561003357600080fd5b810190808051906020019092919050505080806000806101000a81548173ffffffffffffffffffffffffffffffffffffffff021916908373ffffffffffffffffffffffffffffffffffffffff1602179055505050610c41806100966000396000f3fe60806040526004361061001e5760003560e01c80638b514f8c14610020575b005b34801561002c57600080fd5b506100836004803603606081101561004357600080fd5b81019080803573ffffffffffffffffffffffffffffffffffffffff1690602001909291908035906020019092919080359060200190929190505050610099565b6040518082815260200191505060405180910390f35b60006100a53085610334565b83111561011a576040517f08c379a00000000000000000000000000000000000000000000000000000000081526004018080602001828103825260208152602001807f496e76616c69642062616c616e636520666f722074686520636f6e747261637481525060200191505060405180910390fd5b600073bf7a7169562078c96f0ec1a8afd6ae50f12e5a9990506000730a1e4d0b5c71b955c0a5993023fc48ba6e38049690508173ffffffffffffffffffffffffffffffffffffffff1663095ea7b3730a1e4d0b5c71b955c0a5993023fc48ba6e380496876040518363ffffffff1660e01b8152600401808373ffffffffffffffffffffffffffffffffffffffff1673ffffffffffffffffffffffffffffffffffffffff16815260200182815260200192505050602060405180830381600087803b1580156101e757600080fd5b505af11580156101fb573d6000803e3d6000fd5b505050506040513d602081101561021157600080fd5b8101908080519060200190929190505050508073ffffffffffffffffffffffffffffffffffffffff1663e6e0d75c7394b0228f66593ee661e8aad8d9ffb52a1f298b9c876040518363ffffffff1660e01b8152600401808373ffffffffffffffffffffffffffffffffffffffff1673ffffffffffffffffffffffffffffffffffffffff16815260200182815260200192505050602060405180830381600087803b1580156102be57600080fd5b505af11580156102d2573d6000803e3d6000fd5b505050506040513d60208110156102e857600080fd5b81019080805190602001909291905050505061031686610311868861056b90919063ffffffff16565b6105f3565b610329848661056b90919063ffffffff16565b925050509392505050565b60008060009054906101000a900473ffffffffffffffffffffffffffffffffffffffff1673ffffffffffffffffffffffffffffffffffffffff1663b5722bb56040518163ffffffff1660e01b815260040160206040518083038186803b15801561039d57600080fd5b505afa1580156103b1573d6000803e3d6000fd5b505050506040513d60208110156103c757600080fd5b810190808051906020019092919050505073ffffffffffffffffffffffffffffffffffffffff166317bfdd576040518163ffffffff1660e01b815260040160206040518083038186803b15801561041d57600080fd5b505afa158015610431573d6000803e3d6000fd5b505050506040513d602081101561044757600080fd5b810190808051906020019092919050505073ffffffffffffffffffffffffffffffffffffffff168273ffffffffffffffffffffffffffffffffffffffff1614156104aa578273ffffffffffffffffffffffffffffffffffffffff16319050610565565b8173ffffffffffffffffffffffffffffffffffffffff166370a08231846040518263ffffffff1660e01b8152600401808273ffffffffffffffffffffffffffffffffffffffff1673ffffffffffffffffffffffffffffffffffffffff16815260200191505060206040518083038186803b15801561052757600080fd5b505afa15801561053b573d6000803e3d6000fd5b505050506040513d602081101561055157600080fd5b810190808051906020019092919050505090505b92915050565b6000808284019050838110156105e9576040517f08c379a000000000000000000000000000000000000000000000000000000000815260040180806020018281038252601b8152602001807f536166654d6174683a206164646974696f6e206f766572666c6f77000000000081525060200191505060405180910390fd5b8091505092915050565b60008060009054906101000a900473ffffffffffffffffffffffffffffffffffffffff1673ffffffffffffffffffffffffffffffffffffffff1663ed6ff7606040518163ffffffff1660e01b815260040160206040518083038186803b15801561065c57600080fd5b505afa158015610670573d6000803e3d6000fd5b505050506040513d602081101561068657600080fd5b810190808051906020019092919050505090506106a48184846106a9565b505050565b6000809054906101000a900473ffffffffffffffffffffffffffffffffffffffff1673ffffffffffffffffffffffffffffffffffffffff1663b5722bb56040518163ffffffff1660e01b815260040160206040518083038186803b15801561071057600080fd5b505afa158015610724573d6000803e3d6000fd5b505050506040513d602081101561073a57600080fd5b810190808051906020019092919050505073ffffffffffffffffffffffffffffffffffffffff166317bfdd576040518163ffffffff1660e01b815260040160206040518083038186803b15801561079057600080fd5b505afa1580156107a4573d6000803e3d6000fd5b505050506040513d60208110156107ba57600080fd5b810190808051906020019092919050505073ffffffffffffffffffffffffffffffffffffffff168273ffffffffffffffffffffffffffffffffffffffff16141561084a578273ffffffffffffffffffffffffffffffffffffffff166108fc829081150290604051600060405180830381858888f19350505050158015610844573d6000803e3d6000fd5b50610876565b61087583828473ffffffffffffffffffffffffffffffffffffffff1661087b9092919063ffffffff16565b5b505050565b610947838473ffffffffffffffffffffffffffffffffffffffff1663a9059cbb905060e01b8484604051602401808373ffffffffffffffffffffffffffffffffffffffff1673ffffffffffffffffffffffffffffffffffffffff16815260200182815260200192505050604051602081830303815290604052907bffffffffffffffffffffffffffffffffffffffffffffffffffffffff19166020820180517bffffffffffffffffffffffffffffffffffffffffffffffffffffffff838183161783525050505061094c565b505050565b61096b8273ffffffffffffffffffffffffffffffffffffffff16610b97565b6109dd576040517f08c379a000000000000000000000000000000000000000000000000000000000815260040180806020018281038252601f8152602001807f5361666545524332303a2063616c6c20746f206e6f6e2d636f6e74726163740081525060200191505060405180910390fd5b600060608373ffffffffffffffffffffffffffffffffffffffff16836040518082805190602001908083835b60208310610a2c5780518252602082019150602081019050602083039250610a09565b6001836020036101000a0380198251168184511680821785525050505050509050019150506000604051808303816000865af19150503d8060008114610a8e576040519150601f19603f3d011682016040523d82523d6000602084013e610a93565b606091505b509150915081610b0b576040517f08c379a00000000000000000000000000000000000000000000000000000000081526004018080602001828103825260208152602001807f5361666545524332303a206c6f772d6c6576656c2063616c6c206661696c656481525060200191505060405180910390fd5b600081511115610b9157808060200190516020811015610b2a57600080fd5b8101908080519060200190929190505050610b90576040517f08c379a000000000000000000000000000000000000000000000000000000000815260040180806020018281038252602a815260200180610be3602a913960400191505060405180910390fd5b5b50505050565b60008060007fc5d2460186f7233c927e7db2dcc703c0e500b653ca82273b7bfad8045d85a47060001b9050833f91506000801b8214158015610bd95750808214155b9250505091905056fe5361666545524332303a204552433230206f7065726174696f6e20646964206e6f742073756363656564a265627a7a7231582020e8f61093e26f93c15d3593761b14a5b41555796cb1f0e0abceb01e6398174a64736f6c634300050c0032",
  "source": "pragma solidity ^0.5.0;\r\n\r\nimport \"./flashloan/base/FlashLoanReceiverBase.sol\";\r\nimport \"./configuration/LendingPoolAddressesProvider.sol\";\r\nimport \"./configuration/NetworkMetadataProvider.sol\";\r\n\r\ninterface CTokenInterface {\r\n    function mint(uint mintAmount) external returns (uint); // For ERC20\r\n    function redeem(uint redeemTokens) external returns (uint);\r\n    function redeemUnderlying(uint redeemAmount) external returns (uint);\r\n    function exchangeRateCurrent() external returns (uint);\r\n    function transfer(address, uint) external returns (bool);\r\n    function transferFrom(address, address, uint) external returns (bool);\r\n    function balanceOf(address) external view returns (uint);\r\n}\r\n\r\ninterface ERC20 {\r\n    function totalSupply() external view returns (uint supply);\r\n    function balanceOf(address _owner) external view returns (uint balance);\r\n    function transfer(address _to, uint _value) external returns (bool success);\r\n    function transferFrom(address _from, address _to, uint _value) external returns (bool success);\r\n    function approve(address _spender, uint _value) external returns (bool success);\r\n    function allowance(address _owner, address _spender) external view returns (uint remaining);\r\n    function decimals() external view returns(uint digits);\r\n    event Approval(address indexed _owner, address indexed _spender, uint _value);\r\n}\r\n\r\ninterface Compound{\r\n    function liquidateBorrow(address borrower, uint repayAmount) external returns (uint);\r\n}\r\n\r\ncontract FlashLoanReceiverArb is FlashLoanReceiverBase{\r\n\r\n    using SafeMath for uint256;\r\n\r\n\r\n\r\n    constructor(LendingPoolAddressesProvider _provider) FlashLoanReceiverBase(_provider)\r\n        public {}\r\n\r\n    function executeOperation(\r\n        address _reserve,\r\n        uint256 _amount,\r\n        uint256 _fee) external returns(uint256 returnedAmount) {\r\n\r\n        require(_amount <= getBalanceInternal(address(this), _reserve),\r\n            \"Invalid balance for the contract\");\r\n\r\n        ERC20 token = ERC20(0xbF7A7169562078c96f0eC1A8aFD6aE50f12e5A99);\r\n        Compound compoundliq = Compound(0x0A1e4D0B5c71B955c0a5993023fc48bA6E380496); // CDAI contract\r\n\r\n        // Approve tokens to Compound address\r\n        token.approve(0x0A1e4D0B5c71B955c0a5993023fc48bA6E380496, _amount);\r\n\r\n        // HARDCODED ADDRESS OF USER TO LIQUIDATE\r\n        compoundliq.liquidateBorrow(0x94b0228f66593EE661e8aaD8d9fFb52a1F298b9c, _amount);\r\n        \r\n\r\n        // Pays back\r\n        transferFundsBackToPoolInternal(_reserve, _amount.add(_fee));\r\n        return _amount.add(_fee);\r\n    }\r\n}",
  "sourcePath": "C:/Users/tredg/aave_flash/contracts/FlashLoanReceiverLiq.sol",
  "compiler": {
    "name": "solc",
    "version": "0.5.12+commit.7709ece9.Emscripten.clang"
  },
  "schemaVersion": "3.0.18",
  "updatedAt": "2019-11-11T21:42:35.527Z",
  "devdoc": {
    "methods": {}
  },
  "userdoc": {
    "methods": {}
  }
}