{
  "contractName": "LendingPoolParametersProvider",
  "abi": [
    {
      "anonymous": false,
      "inputs": [
        {
          "indexed": true,
          "internalType": "address",
          "name": "previousOwner",
          "type": "address"
        },
        {
          "indexed": true,
          "internalType": "address",
          "name": "newOwner",
          "type": "address"
        }
      ],
      "name": "OwnershipTransferred",
      "type": "event"
    },
    {
      "constant": true,
      "inputs": [
        {
          "internalType": "bytes32",
          "name": "_key",
          "type": "bytes32"
        }
      ],
      "name": "getUint",
      "outputs": [
        {
          "internalType": "uint256",
          "name": "",
          "type": "uint256"
        }
      ],
      "payable": false,
      "stateMutability": "view",
      "type": "function"
    },
    {
      "constant": true,
      "inputs": [],
      "name": "isOwner",
      "outputs": [
        {
          "internalType": "bool",
          "name": "",
          "type": "bool"
        }
      ],
      "payable": false,
      "stateMutability": "view",
      "type": "function"
    },
    {
      "constant": true,
      "inputs": [],
      "name": "owner",
      "outputs": [
        {
          "internalType": "address",
          "name": "",
          "type": "address"
        }
      ],
      "payable": false,
      "stateMutability": "view",
      "type": "function"
    },
    {
      "constant": false,
      "inputs": [],
      "name": "renounceOwnership",
      "outputs": [],
      "payable": false,
      "stateMutability": "nonpayable",
      "type": "function"
    },
    {
      "constant": false,
      "inputs": [
        {
          "internalType": "address",
          "name": "newOwner",
          "type": "address"
        }
      ],
      "name": "transferOwnership",
      "outputs": [],
      "payable": false,
      "stateMutability": "nonpayable",
      "type": "function"
    },
    {
      "constant": true,
      "inputs": [],
      "name": "getMaxFixedRateBorrowSizePercent",
      "outputs": [
        {
          "internalType": "uint256",
          "name": "",
          "type": "uint256"
        }
      ],
      "payable": false,
      "stateMutability": "view",
      "type": "function"
    },
    {
      "constant": false,
      "inputs": [
        {
          "internalType": "uint256",
          "name": "_borrowSizePercent",
          "type": "uint256"
        }
      ],
      "name": "setMaxFixedRateBorrowSizePercent",
      "outputs": [],
      "payable": false,
      "stateMutability": "nonpayable",
      "type": "function"
    },
    {
      "constant": true,
      "inputs": [],
      "name": "getRebalanceDownRateDelta",
      "outputs": [
        {
          "internalType": "uint256",
          "name": "",
          "type": "uint256"
        }
      ],
      "payable": false,
      "stateMutability": "view",
      "type": "function"
    },
    {
      "constant": false,
      "inputs": [
        {
          "internalType": "uint256",
          "name": "_delta",
          "type": "uint256"
        }
      ],
      "name": "setRebalanceDownRateDelta",
      "outputs": [],
      "payable": false,
      "stateMutability": "nonpayable",
      "type": "function"
    }
  ],
  "bytecode": "0x60806040526100126100d460201b60201c565b600160006101000a81548173ffffffffffffffffffffffffffffffffffffffff021916908373ffffffffffffffffffffffffffffffffffffffff160217905550600160009054906101000a900473ffffffffffffffffffffffffffffffffffffffff1673ffffffffffffffffffffffffffffffffffffffff16600073ffffffffffffffffffffffffffffffffffffffff167f8be0079c531659141344cd1fd0a4f28419497f9722a3daafe3b4186f6b6457e060405160405180910390a36100dc565b600033905090565b610804806100eb6000396000f3fe608060405234801561001057600080fd5b50600436106100935760003560e01c8063b383cc2211610066578063b383cc221461012c578063bd02d0f51461015a578063be671bb81461019c578063dd2d8c79146101ca578063f2fde38b146101e857610093565b806346f4f8d114610098578063715018a6146100b65780638da5cb5b146100c05780638f32d59b1461010a575b600080fd5b6100a061022c565b6040518082815260200191505060405180910390f35b6100be61025c565b005b6100c8610397565b604051808273ffffffffffffffffffffffffffffffffffffffff1673ffffffffffffffffffffffffffffffffffffffff16815260200191505060405180910390f35b6101126103c1565b604051808215151515815260200191505060405180910390f35b6101586004803603602081101561014257600080fd5b8101908080359060200190929190505050610420565b005b6101866004803603602081101561017057600080fd5b81019080803590602001909291905050506104c7565b6040518082815260200191505060405180910390f35b6101c8600480360360208110156101b257600080fd5b81019080803590602001909291905050506104e3565b005b6101d261058a565b6040518082815260200191505060405180910390f35b61022a600480360360208110156101fe57600080fd5b81019080803573ffffffffffffffffffffffffffffffffffffffff1690602001909291905050506105ba565b005b60006102577f524542414c414e43455f444f574e5f524154455f44454c5441000000000000006104c7565b905090565b6102646103c1565b6102d6576040517f08c379a00000000000000000000000000000000000000000000000000000000081526004018080602001828103825260208152602001807f4f776e61626c653a2063616c6c6572206973206e6f7420746865206f776e657281525060200191505060405180910390fd5b600073ffffffffffffffffffffffffffffffffffffffff16600160009054906101000a900473ffffffffffffffffffffffffffffffffffffffff1673ffffffffffffffffffffffffffffffffffffffff167f8be0079c531659141344cd1fd0a4f28419497f9722a3daafe3b4186f6b6457e060405160405180910390a36000600160006101000a81548173ffffffffffffffffffffffffffffffffffffffff021916908373ffffffffffffffffffffffffffffffffffffffff160217905550565b6000600160009054906101000a900473ffffffffffffffffffffffffffffffffffffffff16905090565b6000600160009054906101000a900473ffffffffffffffffffffffffffffffffffffffff1673ffffffffffffffffffffffffffffffffffffffff16610404610640565b73ffffffffffffffffffffffffffffffffffffffff1614905090565b6104286103c1565b61049a576040517f08c379a00000000000000000000000000000000000000000000000000000000081526004018080602001828103825260208152602001807f4f776e61626c653a2063616c6c6572206973206e6f7420746865206f776e657281525060200191505060405180910390fd5b6104c47f524542414c414e43455f444f574e5f524154455f44454c54410000000000000082610648565b50565b6000806000838152602001908152602001600020549050919050565b6104eb6103c1565b61055d576040517f08c379a00000000000000000000000000000000000000000000000000000000081526004018080602001828103825260208152602001807f4f776e61626c653a2063616c6c6572206973206e6f7420746865206f776e657281525060200191505060405180910390fd5b6105877f4d41585f524154455f424f52524f575f53495a455f50455243454e540000000082610648565b50565b60006105b57f4d41585f524154455f424f52524f575f53495a455f50455243454e54000000006104c7565b905090565b6105c26103c1565b610634576040517f08c379a00000000000000000000000000000000000000000000000000000000081526004018080602001828103825260208152602001807f4f776e61626c653a2063616c6c6572206973206e6f7420746865206f776e657281525060200191505060405180910390fd5b61063d81610663565b50565b600033905090565b80600080848152602001908152602001600020819055505050565b600073ffffffffffffffffffffffffffffffffffffffff168173ffffffffffffffffffffffffffffffffffffffff1614156106e9576040517f08c379a00000000000000000000000000000000000000000000000000000000081526004018080602001828103825260268152602001806107aa6026913960400191505060405180910390fd5b8073ffffffffffffffffffffffffffffffffffffffff16600160009054906101000a900473ffffffffffffffffffffffffffffffffffffffff1673ffffffffffffffffffffffffffffffffffffffff167f8be0079c531659141344cd1fd0a4f28419497f9722a3daafe3b4186f6b6457e060405160405180910390a380600160006101000a81548173ffffffffffffffffffffffffffffffffffffffff021916908373ffffffffffffffffffffffffffffffffffffffff1602179055505056fe4f776e61626c653a206e6577206f776e657220697320746865207a65726f2061646472657373a265627a7a72315820ec0e4702e34ae57cc7da2ec78152bf45a8a1f0c7fcd72ceb9ba11dbe3a8a678864736f6c634300050c0032",
  "source": "pragma solidity ^0.5.0;\r\n\r\n\r\nimport \"openzeppelin-solidity/contracts/ownership/Ownable.sol\";\r\nimport \"./UintStorage.sol\";\r\n\r\n/**\r\n@title LendingPoolParametersProvider\r\n@author Aave\r\n@notice stores the configuration parameters of the Lending Pool contract\r\n\r\n */\r\ncontract LendingPoolParametersProvider is UintStorage, Ownable {\r\n    bytes32 private constant MAX_FIXED_RATE_BORROW_SIZE_PERCENT = \"MAX_RATE_BORROW_SIZE_PERCENT\";\r\n    bytes32 private constant REBALANCE_DOWN_RATE_DELTA = \"REBALANCE_DOWN_RATE_DELTA\";\r\n\r\n    /**\r\n    @dev returns the maximum fixed rate borrow size, in percentage of the available liquidity.\r\n     */\r\n    function getMaxFixedRateBorrowSizePercent() external view returns (uint256)  {\r\n        return getUint(MAX_FIXED_RATE_BORROW_SIZE_PERCENT);\r\n    }\r\n\r\n    // TODO: add access control rules under DAO\r\n    function setMaxFixedRateBorrowSizePercent(uint256 _borrowSizePercent) external onlyOwner {\r\n        return _setUint(MAX_FIXED_RATE_BORROW_SIZE_PERCENT, _borrowSizePercent);\r\n    }\r\n\r\n    /**\r\n    @dev returns the delta between the current fixed rate and the user fixed rate at\r\n         which the borrow position of the user will be rebalanced (scaled down)\r\n     */\r\n    function getRebalanceDownRateDelta() external view returns (uint256) {\r\n        return getUint(REBALANCE_DOWN_RATE_DELTA);\r\n    }\r\n\r\n    // TODO: add access control rules under DAO\r\n    function setRebalanceDownRateDelta(uint256 _delta) external onlyOwner {\r\n        return _setUint(REBALANCE_DOWN_RATE_DELTA, _delta);\r\n    }\r\n\r\n}\r\n",
  "sourcePath": "C:\\Users\\tredg\\aave_flash\\contracts\\configuration\\LendingPoolParametersProvider.sol",
  "compiler": {
    "name": "solc",
    "version": "0.5.12+commit.7709ece9.Emscripten.clang"
  },
  "schemaVersion": "3.0.18",
  "updatedAt": "2019-11-11T21:45:25.048Z",
  "devdoc": {
    "author": "Aave",
    "methods": {
      "getMaxFixedRateBorrowSizePercent()": {
        "details": "returns the maximum fixed rate borrow size, in percentage of the available liquidity."
      },
      "getRebalanceDownRateDelta()": {
        "details": "returns the delta between the current fixed rate and the user fixed rate at which the borrow position of the user will be rebalanced (scaled down)"
      },
      "isOwner()": {
        "details": "Returns true if the caller is the current owner."
      },
      "owner()": {
        "details": "Returns the address of the current owner."
      },
      "renounceOwnership()": {
        "details": "Leaves the contract without owner. It will not be possible to call `onlyOwner` functions anymore. Can only be called by the current owner.     * NOTE: Renouncing ownership will leave the contract without an owner, thereby removing any functionality that is only available to the owner."
      },
      "transferOwnership(address)": {
        "details": "Transfers ownership of the contract to a new account (`newOwner`). Can only be called by the current owner."
      }
    },
    "title": "LendingPoolParametersProvider"
  },
  "userdoc": {
    "methods": {},
    "notice": "stores the configuration parameters of the Lending Pool contract"
  }
}