{
  "contractName": "LendingPoolConfigurator",
  "abi": [
    {
      "inputs": [
        {
          "internalType": "contract LendingPoolAddressesProvider",
          "name": "_poolAddressesProvider",
          "type": "address"
        }
      ],
      "payable": false,
      "stateMutability": "nonpayable",
      "type": "constructor"
    },
    {
      "anonymous": false,
      "inputs": [
        {
          "indexed": true,
          "internalType": "address",
          "name": "_reserve",
          "type": "address"
        }
      ],
      "name": "BorrowingDisabledOnReserve",
      "type": "event"
    },
    {
      "anonymous": false,
      "inputs": [
        {
          "indexed": false,
          "internalType": "address",
          "name": "_reserve",
          "type": "address"
        },
        {
          "indexed": false,
          "internalType": "bool",
          "name": "_fixedRateEnabled",
          "type": "bool"
        }
      ],
      "name": "BorrowingEnabledOnReserve",
      "type": "event"
    },
    {
      "anonymous": false,
      "inputs": [
        {
          "indexed": true,
          "internalType": "address",
          "name": "_reserve",
          "type": "address"
        }
      ],
      "name": "FixedRateDisabledOnReserve",
      "type": "event"
    },
    {
      "anonymous": false,
      "inputs": [
        {
          "indexed": true,
          "internalType": "address",
          "name": "_reserve",
          "type": "address"
        }
      ],
      "name": "FixedRateEnabledOnReserve",
      "type": "event"
    },
    {
      "anonymous": false,
      "inputs": [
        {
          "indexed": true,
          "internalType": "address",
          "name": "previousOwner",
          "type": "address"
        },
        {
          "indexed": true,
          "internalType": "address",
          "name": "newOwner",
          "type": "address"
        }
      ],
      "name": "OwnershipTransferred",
      "type": "event"
    },
    {
      "anonymous": false,
      "inputs": [
        {
          "indexed": true,
          "internalType": "address",
          "name": "_reserve",
          "type": "address"
        }
      ],
      "name": "ReserveActivated",
      "type": "event"
    },
    {
      "anonymous": false,
      "inputs": [
        {
          "indexed": true,
          "internalType": "address",
          "name": "_reserve",
          "type": "address"
        }
      ],
      "name": "ReserveDeactivated",
      "type": "event"
    },
    {
      "anonymous": false,
      "inputs": [
        {
          "indexed": true,
          "internalType": "address",
          "name": "_reserve",
          "type": "address"
        }
      ],
      "name": "ReserveDisabledAsCollateral",
      "type": "event"
    },
    {
      "anonymous": false,
      "inputs": [
        {
          "indexed": true,
          "internalType": "address",
          "name": "_reserve",
          "type": "address"
        },
        {
          "indexed": false,
          "internalType": "uint256",
          "name": "_ltv",
          "type": "uint256"
        },
        {
          "indexed": false,
          "internalType": "uint256",
          "name": "_liquidationThreshold",
          "type": "uint256"
        }
      ],
      "name": "ReserveEnabledAsCollateral",
      "type": "event"
    },
    {
      "anonymous": false,
      "inputs": [
        {
          "indexed": true,
          "internalType": "address",
          "name": "_reserve",
          "type": "address"
        },
        {
          "indexed": true,
          "internalType": "address",
          "name": "_aToken",
          "type": "address"
        },
        {
          "indexed": false,
          "internalType": "uint256",
          "name": "_initialExchangeRate",
          "type": "uint256"
        },
        {
          "indexed": false,
          "internalType": "address",
          "name": "_interestRateStrategyAddress",
          "type": "address"
        }
      ],
      "name": "ReserveInitialized",
      "type": "event"
    },
    {
      "constant": true,
      "inputs": [],
      "name": "isOwner",
      "outputs": [
        {
          "internalType": "bool",
          "name": "",
          "type": "bool"
        }
      ],
      "payable": false,
      "stateMutability": "view",
      "type": "function"
    },
    {
      "constant": true,
      "inputs": [],
      "name": "owner",
      "outputs": [
        {
          "internalType": "address",
          "name": "",
          "type": "address"
        }
      ],
      "payable": false,
      "stateMutability": "view",
      "type": "function"
    },
    {
      "constant": true,
      "inputs": [],
      "name": "poolAddressesProvider",
      "outputs": [
        {
          "internalType": "contract LendingPoolAddressesProvider",
          "name": "",
          "type": "address"
        }
      ],
      "payable": false,
      "stateMutability": "view",
      "type": "function"
    },
    {
      "constant": false,
      "inputs": [],
      "name": "renounceOwnership",
      "outputs": [],
      "payable": false,
      "stateMutability": "nonpayable",
      "type": "function"
    },
    {
      "constant": false,
      "inputs": [
        {
          "internalType": "address",
          "name": "newOwner",
          "type": "address"
        }
      ],
      "name": "transferOwnership",
      "outputs": [],
      "payable": false,
      "stateMutability": "nonpayable",
      "type": "function"
    },
    {
      "constant": false,
      "inputs": [
        {
          "internalType": "address",
          "name": "_reserve",
          "type": "address"
        },
        {
          "internalType": "uint256",
          "name": "_aTokenInitialExchangeRate",
          "type": "uint256"
        },
        {
          "internalType": "uint256",
          "name": "_underlyingAssetDecimals",
          "type": "uint256"
        },
        {
          "internalType": "address",
          "name": "_interestRateStrategyAddress",
          "type": "address"
        }
      ],
      "name": "initReserve",
      "outputs": [],
      "payable": false,
      "stateMutability": "nonpayable",
      "type": "function"
    },
    {
      "constant": false,
      "inputs": [
        {
          "internalType": "address",
          "name": "_reserve",
          "type": "address"
        },
        {
          "internalType": "string",
          "name": "aTokenName",
          "type": "string"
        },
        {
          "internalType": "string",
          "name": "aTokenSymbol",
          "type": "string"
        },
        {
          "internalType": "uint256",
          "name": "_aTokenInitialExchangeRate",
          "type": "uint256"
        },
        {
          "internalType": "uint256",
          "name": "_underlyingAssetDecimals",
          "type": "uint256"
        },
        {
          "internalType": "address",
          "name": "_interestRateStrategyAddress",
          "type": "address"
        }
      ],
      "name": "initReserveWithData",
      "outputs": [],
      "payable": false,
      "stateMutability": "nonpayable",
      "type": "function"
    },
    {
      "constant": false,
      "inputs": [
        {
          "internalType": "address",
          "name": "_reserve",
          "type": "address"
        },
        {
          "internalType": "bool",
          "name": "_fixedBorrowRateEnabled",
          "type": "bool"
        }
      ],
      "name": "enableBorrowingOnReserve",
      "outputs": [],
      "payable": false,
      "stateMutability": "nonpayable",
      "type": "function"
    },
    {
      "constant": false,
      "inputs": [
        {
          "internalType": "address",
          "name": "_reserve",
          "type": "address"
        }
      ],
      "name": "disableBorrowingOnReserve",
      "outputs": [],
      "payable": false,
      "stateMutability": "nonpayable",
      "type": "function"
    },
    {
      "constant": false,
      "inputs": [
        {
          "internalType": "address",
          "name": "_reserve",
          "type": "address"
        },
        {
          "internalType": "uint256",
          "name": "_baseLTVasCollateral",
          "type": "uint256"
        },
        {
          "internalType": "uint256",
          "name": "_liquidationThreshold",
          "type": "uint256"
        }
      ],
      "name": "enableReserveAsCollateral",
      "outputs": [],
      "payable": false,
      "stateMutability": "nonpayable",
      "type": "function"
    },
    {
      "constant": false,
      "inputs": [
        {
          "internalType": "address",
          "name": "_reserve",
          "type": "address"
        }
      ],
      "name": "disableReserveAsCollateral",
      "outputs": [],
      "payable": false,
      "stateMutability": "nonpayable",
      "type": "function"
    },
    {
      "constant": false,
      "inputs": [
        {
          "internalType": "address",
          "name": "_reserve",
          "type": "address"
        }
      ],
      "name": "enableReserveFixedBorrowRate",
      "outputs": [],
      "payable": false,
      "stateMutability": "nonpayable",
      "type": "function"
    },
    {
      "constant": false,
      "inputs": [
        {
          "internalType": "address",
          "name": "_reserve",
          "type": "address"
        }
      ],
      "name": "disableReserveFixedBorrowRate",
      "outputs": [],
      "payable": false,
      "stateMutability": "nonpayable",
      "type": "function"
    },
    {
      "constant": false,
      "inputs": [
        {
          "internalType": "address",
          "name": "_reserve",
          "type": "address"
        }
      ],
      "name": "activateReserve",
      "outputs": [],
      "payable": false,
      "stateMutability": "nonpayable",
      "type": "function"
    },
    {
      "constant": false,
      "inputs": [
        {
          "internalType": "address",
          "name": "_reserve",
          "type": "address"
        }
      ],
      "name": "deactivateReserve",
      "outputs": [],
      "payable": false,
      "stateMutability": "nonpayable",
      "type": "function"
    },
    {
      "constant": false,
      "inputs": [
        {
          "internalType": "address",
          "name": "_reserve",
          "type": "address"
        },
        {
          "internalType": "uint256",
          "name": "_ltv",
          "type": "uint256"
        }
      ],
      "name": "setReserveBaseLTVasCollateral",
      "outputs": [],
      "payable": false,
      "stateMutability": "nonpayable",
      "type": "function"
    },
    {
      "constant": false,
      "inputs": [
        {
          "internalType": "address",
          "name": "_reserve",
          "type": "address"
        },
        {
          "internalType": "uint256",
          "name": "_threshold",
          "type": "uint256"
        }
      ],
      "name": "setReserveLiquidationThreshold",
      "outputs": [],
      "payable": false,
      "stateMutability": "nonpayable",
      "type": "function"
    },
    {
      "constant": false,
      "inputs": [
        {
          "internalType": "address",
          "name": "_reserve",
          "type": "address"
        },
        {
          "internalType": "uint256",
          "name": "_threshold",
          "type": "uint256"
        }
      ],
      "name": "setReserveLiquidationDiscount",
      "outputs": [],
      "payable": false,
      "stateMutability": "nonpayable",
      "type": "function"
    },
    {
      "constant": false,
      "inputs": [
        {
          "internalType": "address",
          "name": "_reserve",
          "type": "address"
        },
        {
          "internalType": "address",
          "name": "_rateStrategyAddress",
          "type": "address"
        }
      ],
      "name": "setReserveInterestRateStrategyAddress",
      "outputs": [],
      "payable": false,
      "stateMutability": "nonpayable",
      "type": "function"
    },
    {
      "constant": false,
      "inputs": [
        {
          "internalType": "address",
          "name": "_provider",
          "type": "address"
        }
      ],
      "name": "setLendingPoolCoreAddressesProvider",
      "outputs": [],
      "payable": false,
      "stateMutability": "nonpayable",
      "type": "function"
    },
    {
      "constant": false,
      "inputs": [],
      "name": "refreshLendingPoolCoreConfiguration",
      "outputs": [],
      "payable": false,
      "stateMutability": "nonpayable",
      "type": "function"
    }
  ],
  "bytecode": "0x60806040523480156200001157600080fd5b5060405162006a0f38038062006a0f833981810160405260208110156200003757600080fd5b8101908080519060200190929190505050620000586200015b60201b60201c565b6000806101000a81548173ffffffffffffffffffffffffffffffffffffffff021916908373ffffffffffffffffffffffffffffffffffffffff1602179055506000809054906101000a900473ffffffffffffffffffffffffffffffffffffffff1673ffffffffffffffffffffffffffffffffffffffff16600073ffffffffffffffffffffffffffffffffffffffff167f8be0079c531659141344cd1fd0a4f28419497f9722a3daafe3b4186f6b6457e060405160405180910390a380600160006101000a81548173ffffffffffffffffffffffffffffffffffffffff021916908373ffffffffffffffffffffffffffffffffffffffff1602179055505062000163565b600033905090565b61689c80620001736000396000f3fe60806040523480156200001157600080fd5b5060043610620001545760003560e01c8063a17166f111620000c9578063d466016f1162000087578063d466016f1462000712578063d7e075811462000763578063e12dcc6c14620007aa578063e8ae2f5b14620007b6578063eede87c114620007fd578063f2fde38b14620008505762000154565b8063a17166f1146200043d578063a8dc0f4514620005ec578063a9ef33e91462000633578063b46a4b34146200067a578063b75d6f3414620006cb5762000154565b8063715018a61162000117578063715018a6146200032e57806380e17d87146200033a5780638da5cb5b14620003865780638f32d59b14620003d25780639789b68a14620003f65762000154565b80631d2118f9146200015957806329a1786814620001c05780633443a14b146200021b5780633e72a454146200026c5780635f674c8714620002b3575b600080fd5b620001be600480360360408110156200017157600080fd5b81019080803573ffffffffffffffffffffffffffffffffffffffff169060200190929190803573ffffffffffffffffffffffffffffffffffffffff16906020019092919050505062000897565b005b6200021960048036036060811015620001d857600080fd5b81019080803573ffffffffffffffffffffffffffffffffffffffff169060200190929190803590602001909291908035906020019092919050505062000b3e565b005b6200026a600480360360408110156200023357600080fd5b81019080803573ffffffffffffffffffffffffffffffffffffffff1690602001909291908035906020019092919050505062000e18565b005b620002b1600480360360208110156200028457600080fd5b81019080803573ffffffffffffffffffffffffffffffffffffffff16906020019092919050505062001093565b005b6200032c60048036036080811015620002cb57600080fd5b81019080803573ffffffffffffffffffffffffffffffffffffffff1690602001909291908035906020019092919080359060200190929190803573ffffffffffffffffffffffffffffffffffffffff16906020019092919050505062001348565b005b6200033862001851565b005b620003446200198d565b604051808273ffffffffffffffffffffffffffffffffffffffff1673ffffffffffffffffffffffffffffffffffffffff16815260200191505060405180910390f35b62000390620019b3565b604051808273ffffffffffffffffffffffffffffffffffffffff1673ffffffffffffffffffffffffffffffffffffffff16815260200191505060405180910390f35b620003dc620019dc565b604051808215151515815260200191505060405180910390f35b6200043b600480360360208110156200040e57600080fd5b81019080803573ffffffffffffffffffffffffffffffffffffffff16906020019092919050505062001a3c565b005b620005ea600480360360c08110156200045557600080fd5b81019080803573ffffffffffffffffffffffffffffffffffffffff169060200190929190803590602001906401000000008111156200049357600080fd5b820183602082011115620004a657600080fd5b80359060200191846001830284011164010000000083111715620004c957600080fd5b91908080601f016020809104026020016040519081016040528093929190818152602001838380828437600081840152601f19601f820116905080830192505050505050509192919290803590602001906401000000008111156200052d57600080fd5b8201836020820111156200054057600080fd5b803590602001918460018302840111640100000000831117156200056357600080fd5b91908080601f016020809104026020016040519081016040528093929190818152602001838380828437600081840152601f19601f8201169050808301925050505050505091929192908035906020019092919080359060200190929190803573ffffffffffffffffffffffffffffffffffffffff16906020019092919050505062001cf1565b005b62000631600480360360208110156200060457600080fd5b81019080803573ffffffffffffffffffffffffffffffffffffffff1690602001909291905050506200222b565b005b62000678600480360360208110156200064b57600080fd5b81019080803573ffffffffffffffffffffffffffffffffffffffff169060200190929190505050620024e0565b005b620006c9600480360360408110156200069257600080fd5b81019080803573ffffffffffffffffffffffffffffffffffffffff1690602001909291908035906020019092919050505062002752565b005b6200071060048036036020811015620006e357600080fd5b81019080803573ffffffffffffffffffffffffffffffffffffffff169060200190929190505050620029cd565b005b62000761600480360360408110156200072a57600080fd5b81019080803573ffffffffffffffffffffffffffffffffffffffff1690602001909291908035906020019092919050505062002c82565b005b620007a8600480360360208110156200077b57600080fd5b81019080803573ffffffffffffffffffffffffffffffffffffffff16906020019092919050505062002efd565b005b620007b4620031b2565b005b620007fb60048036036020811015620007ce57600080fd5b81019080803573ffffffffffffffffffffffffffffffffffffffff169060200190929190505050620033ec565b005b6200084e600480360360408110156200081557600080fd5b81019080803573ffffffffffffffffffffffffffffffffffffffff169060200190929190803515159060200190929190505050620036a1565b005b62000895600480360360208110156200086857600080fd5b81019080803573ffffffffffffffffffffffffffffffffffffffff1690602001909291905050506200398f565b005b3373ffffffffffffffffffffffffffffffffffffffff16600160009054906101000a900473ffffffffffffffffffffffffffffffffffffffff1673ffffffffffffffffffffffffffffffffffffffff166333128d596040518163ffffffff1660e01b815260040160206040518083038186803b1580156200091757600080fd5b505afa1580156200092c573d6000803e3d6000fd5b505050506040513d60208110156200094357600080fd5b810190808051906020019092919050505073ffffffffffffffffffffffffffffffffffffffff1614620009c2576040517f08c379a00000000000000000000000000000000000000000000000000000000081526004018080602001828103825260298152602001806200683f6029913960400191505060405180910390fd5b6000600160009054906101000a900473ffffffffffffffffffffffffffffffffffffffff1673ffffffffffffffffffffffffffffffffffffffff1663ed6ff7606040518163ffffffff1660e01b815260040160206040518083038186803b15801562000a2d57600080fd5b505afa15801562000a42573d6000803e3d6000fd5b505050506040513d602081101562000a5957600080fd5b810190808051906020019092919050505090508073ffffffffffffffffffffffffffffffffffffffff16631d2118f984846040518363ffffffff1660e01b8152600401808373ffffffffffffffffffffffffffffffffffffffff1673ffffffffffffffffffffffffffffffffffffffff1681526020018273ffffffffffffffffffffffffffffffffffffffff1673ffffffffffffffffffffffffffffffffffffffff16815260200192505050600060405180830381600087803b15801562000b2057600080fd5b505af115801562000b35573d6000803e3d6000fd5b50505050505050565b3373ffffffffffffffffffffffffffffffffffffffff16600160009054906101000a900473ffffffffffffffffffffffffffffffffffffffff1673ffffffffffffffffffffffffffffffffffffffff166333128d596040518163ffffffff1660e01b815260040160206040518083038186803b15801562000bbe57600080fd5b505afa15801562000bd3573d6000803e3d6000fd5b505050506040513d602081101562000bea57600080fd5b810190808051906020019092919050505073ffffffffffffffffffffffffffffffffffffffff161462000c69576040517f08c379a00000000000000000000000000000000000000000000000000000000081526004018080602001828103825260298152602001806200683f6029913960400191505060405180910390fd5b6000600160009054906101000a900473ffffffffffffffffffffffffffffffffffffffff1673ffffffffffffffffffffffffffffffffffffffff1663ed6ff7606040518163ffffffff1660e01b815260040160206040518083038186803b15801562000cd457600080fd5b505afa15801562000ce9573d6000803e3d6000fd5b505050506040513d602081101562000d0057600080fd5b810190808051906020019092919050505090508073ffffffffffffffffffffffffffffffffffffffff166329a178688585856040518463ffffffff1660e01b8152600401808473ffffffffffffffffffffffffffffffffffffffff1673ffffffffffffffffffffffffffffffffffffffff1681526020018381526020018281526020019350505050600060405180830381600087803b15801562000da357600080fd5b505af115801562000db8573d6000803e3d6000fd5b505050508373ffffffffffffffffffffffffffffffffffffffff167f0b2f4ddd80e34a38c71a6c5f953a99dc8b45c79b8c563d301c2bb2267b9dbc348484604051808381526020018281526020019250505060405180910390a250505050565b3373ffffffffffffffffffffffffffffffffffffffff16600160009054906101000a900473ffffffffffffffffffffffffffffffffffffffff1673ffffffffffffffffffffffffffffffffffffffff166333128d596040518163ffffffff1660e01b815260040160206040518083038186803b15801562000e9857600080fd5b505afa15801562000ead573d6000803e3d6000fd5b505050506040513d602081101562000ec457600080fd5b810190808051906020019092919050505073ffffffffffffffffffffffffffffffffffffffff161462000f43576040517f08c379a00000000000000000000000000000000000000000000000000000000081526004018080602001828103825260298152602001806200683f6029913960400191505060405180910390fd5b6000600160009054906101000a900473ffffffffffffffffffffffffffffffffffffffff1673ffffffffffffffffffffffffffffffffffffffff1663ed6ff7606040518163ffffffff1660e01b815260040160206040518083038186803b15801562000fae57600080fd5b505afa15801562000fc3573d6000803e3d6000fd5b505050506040513d602081101562000fda57600080fd5b810190808051906020019092919050505090508073ffffffffffffffffffffffffffffffffffffffff16633443a14b84846040518363ffffffff1660e01b8152600401808373ffffffffffffffffffffffffffffffffffffffff1673ffffffffffffffffffffffffffffffffffffffff16815260200182815260200192505050600060405180830381600087803b1580156200107557600080fd5b505af11580156200108a573d6000803e3d6000fd5b50505050505050565b3373ffffffffffffffffffffffffffffffffffffffff16600160009054906101000a900473ffffffffffffffffffffffffffffffffffffffff1673ffffffffffffffffffffffffffffffffffffffff166333128d596040518163ffffffff1660e01b815260040160206040518083038186803b1580156200111357600080fd5b505afa15801562001128573d6000803e3d6000fd5b505050506040513d60208110156200113f57600080fd5b810190808051906020019092919050505073ffffffffffffffffffffffffffffffffffffffff1614620011be576040517f08c379a00000000000000000000000000000000000000000000000000000000081526004018080602001828103825260298152602001806200683f6029913960400191505060405180910390fd5b6000600160009054906101000a900473ffffffffffffffffffffffffffffffffffffffff1673ffffffffffffffffffffffffffffffffffffffff1663ed6ff7606040518163ffffffff1660e01b815260040160206040518083038186803b1580156200122957600080fd5b505afa1580156200123e573d6000803e3d6000fd5b505050506040513d60208110156200125557600080fd5b810190808051906020019092919050505090508073ffffffffffffffffffffffffffffffffffffffff16633e72a454836040518263ffffffff1660e01b8152600401808273ffffffffffffffffffffffffffffffffffffffff1673ffffffffffffffffffffffffffffffffffffffff168152602001915050600060405180830381600087803b158015620012e857600080fd5b505af1158015620012fd573d6000803e3d6000fd5b505050508173ffffffffffffffffffffffffffffffffffffffff167f6f60cf8bd0f218cabe1ea3150bd07b0b758c35c4cfdf7138017a283e65564d5e60405160405180910390a25050565b3373ffffffffffffffffffffffffffffffffffffffff16600160009054906101000a900473ffffffffffffffffffffffffffffffffffffffff1673ffffffffffffffffffffffffffffffffffffffff166333128d596040518163ffffffff1660e01b815260040160206040518083038186803b158015620013c857600080fd5b505afa158015620013dd573d6000803e3d6000fd5b505050506040513d6020811015620013f457600080fd5b810190808051906020019092919050505073ffffffffffffffffffffffffffffffffffffffff161462001473576040517f08c379a00000000000000000000000000000000000000000000000000000000081526004018080602001828103825260298152602001806200683f6029913960400191505060405180910390fd5b600084905060608173ffffffffffffffffffffffffffffffffffffffff166306fdde036040518163ffffffff1660e01b815260040160006040518083038186803b158015620014c157600080fd5b505afa158015620014d6573d6000803e3d6000fd5b505050506040513d6000823e3d601f19601f8201168201806040525060208110156200150157600080fd5b81019080805160405193929190846401000000008211156200152257600080fd5b838201915060208201858111156200153957600080fd5b82518660018202830111640100000000821117156200155757600080fd5b8083526020830192505050908051906020019080838360005b838110156200158d57808201518184015260208101905062001570565b50505050905090810190601f168015620015bb5780820380516001836020036101000a031916815260200191505b5060405250505060405160200180807f4161766520496e7465726573742062656172696e67200000000000000000000081525060160182805190602001908083835b60208310620016225780518252602082019150602081019050602083039250620015fd565b6001836020036101000a038019825116818451168082178552505050505050905001915050604051602081830303815290604052905060608273ffffffffffffffffffffffffffffffffffffffff166395d89b416040518163ffffffff1660e01b815260040160006040518083038186803b158015620016a157600080fd5b505afa158015620016b6573d6000803e3d6000fd5b505050506040513d6000823e3d601f19601f820116820180604052506020811015620016e157600080fd5b81019080805160405193929190846401000000008211156200170257600080fd5b838201915060208201858111156200171957600080fd5b82518660018202830111640100000000821117156200173757600080fd5b8083526020830192505050908051906020019080838360005b838110156200176d57808201518184015260208101905062001750565b50505050905090810190601f1680156200179b5780820380516001836020036101000a031916815260200191505b5060405250505060405160200180807f610000000000000000000000000000000000000000000000000000000000000081525060010182805190602001908083835b60208310620018025780518252602082019150602081019050602083039250620017dd565b6001836020036101000a03801982511681845116808217855250505050505090500191505060405160208183030381529060405290506200184887838389898962001cf1565b50505050505050565b6200185b620019dc565b620018ce576040517f08c379a00000000000000000000000000000000000000000000000000000000081526004018080602001828103825260208152602001807f4f776e61626c653a2063616c6c6572206973206e6f7420746865206f776e657281525060200191505060405180910390fd5b600073ffffffffffffffffffffffffffffffffffffffff166000809054906101000a900473ffffffffffffffffffffffffffffffffffffffff1673ffffffffffffffffffffffffffffffffffffffff167f8be0079c531659141344cd1fd0a4f28419497f9722a3daafe3b4186f6b6457e060405160405180910390a360008060006101000a81548173ffffffffffffffffffffffffffffffffffffffff021916908373ffffffffffffffffffffffffffffffffffffffff160217905550565b600160009054906101000a900473ffffffffffffffffffffffffffffffffffffffff1681565b60008060009054906101000a900473ffffffffffffffffffffffffffffffffffffffff16905090565b60008060009054906101000a900473ffffffffffffffffffffffffffffffffffffffff1673ffffffffffffffffffffffffffffffffffffffff1662001a2062003a1a565b73ffffffffffffffffffffffffffffffffffffffff1614905090565b3373ffffffffffffffffffffffffffffffffffffffff16600160009054906101000a900473ffffffffffffffffffffffffffffffffffffffff1673ffffffffffffffffffffffffffffffffffffffff166333128d596040518163ffffffff1660e01b815260040160206040518083038186803b15801562001abc57600080fd5b505afa15801562001ad1573d6000803e3d6000fd5b505050506040513d602081101562001ae857600080fd5b810190808051906020019092919050505073ffffffffffffffffffffffffffffffffffffffff161462001b67576040517f08c379a00000000000000000000000000000000000000000000000000000000081526004018080602001828103825260298152602001806200683f6029913960400191505060405180910390fd5b6000600160009054906101000a900473ffffffffffffffffffffffffffffffffffffffff1673ffffffffffffffffffffffffffffffffffffffff1663ed6ff7606040518163ffffffff1660e01b815260040160206040518083038186803b15801562001bd257600080fd5b505afa15801562001be7573d6000803e3d6000fd5b505050506040513d602081101562001bfe57600080fd5b810190808051906020019092919050505090508073ffffffffffffffffffffffffffffffffffffffff16639789b68a836040518263ffffffff1660e01b8152600401808273ffffffffffffffffffffffffffffffffffffffff1673ffffffffffffffffffffffffffffffffffffffff168152602001915050600060405180830381600087803b15801562001c9157600080fd5b505af115801562001ca6573d6000803e3d6000fd5b505050508173ffffffffffffffffffffffffffffffffffffffff167f3785f652b18f48a8a4c505037390f85f5b89bfe105384b964138f8a947ae89c660405160405180910390a25050565b3373ffffffffffffffffffffffffffffffffffffffff16600160009054906101000a900473ffffffffffffffffffffffffffffffffffffffff1673ffffffffffffffffffffffffffffffffffffffff166333128d596040518163ffffffff1660e01b815260040160206040518083038186803b15801562001d7157600080fd5b505afa15801562001d86573d6000803e3d6000fd5b505050506040513d602081101562001d9d57600080fd5b810190808051906020019092919050505073ffffffffffffffffffffffffffffffffffffffff161462001e1c576040517f08c379a00000000000000000000000000000000000000000000000000000000081526004018080602001828103825260298152602001806200683f6029913960400191505060405180910390fd5b6000600160009054906101000a900473ffffffffffffffffffffffffffffffffffffffff1673ffffffffffffffffffffffffffffffffffffffff1663ed6ff7606040518163ffffffff1660e01b815260040160206040518083038186803b15801562001e8757600080fd5b505afa15801562001e9c573d6000803e3d6000fd5b505050506040513d602081101562001eb357600080fd5b810190808051906020019092919050505090506000600160009054906101000a900473ffffffffffffffffffffffffffffffffffffffff168885898960128a60405162001f009062003b68565b808873ffffffffffffffffffffffffffffffffffffffff1673ffffffffffffffffffffffffffffffffffffffff1681526020018773ffffffffffffffffffffffffffffffffffffffff1673ffffffffffffffffffffffffffffffffffffffff16815260200186815260200180602001806020018560ff168152602001848152602001838103835287818151815260200191508051906020019080838360005b8381101562001fbc57808201518184015260208101905062001f9f565b50505050905090810190601f16801562001fea5780820380516001836020036101000a031916815260200191505b50838103825286818151815260200191508051906020019080838360005b838110156200202557808201518184015260208101905062002008565b50505050905090810190601f168015620020535780820380516001836020036101000a031916815260200191505b509950505050505050505050604051809103906000f0801580156200207c573d6000803e3d6000fd5b5090508173ffffffffffffffffffffffffffffffffffffffff166345330a40898387876040518563ffffffff1660e01b8152600401808573ffffffffffffffffffffffffffffffffffffffff1673ffffffffffffffffffffffffffffffffffffffff1681526020018473ffffffffffffffffffffffffffffffffffffffff1673ffffffffffffffffffffffffffffffffffffffff1681526020018381526020018273ffffffffffffffffffffffffffffffffffffffff1673ffffffffffffffffffffffffffffffffffffffff168152602001945050505050600060405180830381600087803b1580156200216f57600080fd5b505af115801562002184573d6000803e3d6000fd5b505050508073ffffffffffffffffffffffffffffffffffffffff168873ffffffffffffffffffffffffffffffffffffffff167f9c6373c8d8364b6e1acd1bcb5895e6aee73dc8128782869914d27d7e54a938988786604051808381526020018273ffffffffffffffffffffffffffffffffffffffff1673ffffffffffffffffffffffffffffffffffffffff1681526020019250505060405180910390a35050505050505050565b3373ffffffffffffffffffffffffffffffffffffffff16600160009054906101000a900473ffffffffffffffffffffffffffffffffffffffff1673ffffffffffffffffffffffffffffffffffffffff166333128d596040518163ffffffff1660e01b815260040160206040518083038186803b158015620022ab57600080fd5b505afa158015620022c0573d6000803e3d6000fd5b505050506040513d6020811015620022d757600080fd5b810190808051906020019092919050505073ffffffffffffffffffffffffffffffffffffffff161462002356576040517f08c379a00000000000000000000000000000000000000000000000000000000081526004018080602001828103825260298152602001806200683f6029913960400191505060405180910390fd5b6000600160009054906101000a900473ffffffffffffffffffffffffffffffffffffffff1673ffffffffffffffffffffffffffffffffffffffff1663ed6ff7606040518163ffffffff1660e01b815260040160206040518083038186803b158015620023c157600080fd5b505afa158015620023d6573d6000803e3d6000fd5b505050506040513d6020811015620023ed57600080fd5b810190808051906020019092919050505090508073ffffffffffffffffffffffffffffffffffffffff1663a8dc0f45836040518263ffffffff1660e01b8152600401808273ffffffffffffffffffffffffffffffffffffffff1673ffffffffffffffffffffffffffffffffffffffff168152602001915050600060405180830381600087803b1580156200248057600080fd5b505af115801562002495573d6000803e3d6000fd5b505050508173ffffffffffffffffffffffffffffffffffffffff167fe9a7e5fd4fc8ea18e602350324bf48e8f05d12434af0ce0be05743e6a5fdcb9e60405160405180910390a25050565b3373ffffffffffffffffffffffffffffffffffffffff16600160009054906101000a900473ffffffffffffffffffffffffffffffffffffffff1673ffffffffffffffffffffffffffffffffffffffff166333128d596040518163ffffffff1660e01b815260040160206040518083038186803b1580156200256057600080fd5b505afa15801562002575573d6000803e3d6000fd5b505050506040513d60208110156200258c57600080fd5b810190808051906020019092919050505073ffffffffffffffffffffffffffffffffffffffff16146200260b576040517f08c379a00000000000000000000000000000000000000000000000000000000081526004018080602001828103825260298152602001806200683f6029913960400191505060405180910390fd5b6000600160009054906101000a900473ffffffffffffffffffffffffffffffffffffffff1673ffffffffffffffffffffffffffffffffffffffff1663ed6ff7606040518163ffffffff1660e01b815260040160206040518083038186803b1580156200267657600080fd5b505afa1580156200268b573d6000803e3d6000fd5b505050506040513d6020811015620026a257600080fd5b810190808051906020019092919050505090508073ffffffffffffffffffffffffffffffffffffffff16636722997a836040518263ffffffff1660e01b8152600401808273ffffffffffffffffffffffffffffffffffffffff1673ffffffffffffffffffffffffffffffffffffffff168152602001915050600060405180830381600087803b1580156200273557600080fd5b505af11580156200274a573d6000803e3d6000fd5b505050505050565b3373ffffffffffffffffffffffffffffffffffffffff16600160009054906101000a900473ffffffffffffffffffffffffffffffffffffffff1673ffffffffffffffffffffffffffffffffffffffff166333128d596040518163ffffffff1660e01b815260040160206040518083038186803b158015620027d257600080fd5b505afa158015620027e7573d6000803e3d6000fd5b505050506040513d6020811015620027fe57600080fd5b810190808051906020019092919050505073ffffffffffffffffffffffffffffffffffffffff16146200287d576040517f08c379a00000000000000000000000000000000000000000000000000000000081526004018080602001828103825260298152602001806200683f6029913960400191505060405180910390fd5b6000600160009054906101000a900473ffffffffffffffffffffffffffffffffffffffff1673ffffffffffffffffffffffffffffffffffffffff1663ed6ff7606040518163ffffffff1660e01b815260040160206040518083038186803b158015620028e857600080fd5b505afa158015620028fd573d6000803e3d6000fd5b505050506040513d60208110156200291457600080fd5b810190808051906020019092919050505090508073ffffffffffffffffffffffffffffffffffffffff1663b46a4b3484846040518363ffffffff1660e01b8152600401808373ffffffffffffffffffffffffffffffffffffffff1673ffffffffffffffffffffffffffffffffffffffff16815260200182815260200192505050600060405180830381600087803b158015620029af57600080fd5b505af1158015620029c4573d6000803e3d6000fd5b50505050505050565b3373ffffffffffffffffffffffffffffffffffffffff16600160009054906101000a900473ffffffffffffffffffffffffffffffffffffffff1673ffffffffffffffffffffffffffffffffffffffff166333128d596040518163ffffffff1660e01b815260040160206040518083038186803b15801562002a4d57600080fd5b505afa15801562002a62573d6000803e3d6000fd5b505050506040513d602081101562002a7957600080fd5b810190808051906020019092919050505073ffffffffffffffffffffffffffffffffffffffff161462002af8576040517f08c379a00000000000000000000000000000000000000000000000000000000081526004018080602001828103825260298152602001806200683f6029913960400191505060405180910390fd5b6000600160009054906101000a900473ffffffffffffffffffffffffffffffffffffffff1673ffffffffffffffffffffffffffffffffffffffff1663ed6ff7606040518163ffffffff1660e01b815260040160206040518083038186803b15801562002b6357600080fd5b505afa15801562002b78573d6000803e3d6000fd5b505050506040513d602081101562002b8f57600080fd5b810190808051906020019092919050505090508073ffffffffffffffffffffffffffffffffffffffff1663b75d6f34836040518263ffffffff1660e01b8152600401808273ffffffffffffffffffffffffffffffffffffffff1673ffffffffffffffffffffffffffffffffffffffff168152602001915050600060405180830381600087803b15801562002c2257600080fd5b505af115801562002c37573d6000803e3d6000fd5b505050508173ffffffffffffffffffffffffffffffffffffffff167f35b80cd8ea3440e9a8454f116fa658b858da1b64c86c48451f4559cefcdfb56c60405160405180910390a25050565b3373ffffffffffffffffffffffffffffffffffffffff16600160009054906101000a900473ffffffffffffffffffffffffffffffffffffffff1673ffffffffffffffffffffffffffffffffffffffff166333128d596040518163ffffffff1660e01b815260040160206040518083038186803b15801562002d0257600080fd5b505afa15801562002d17573d6000803e3d6000fd5b505050506040513d602081101562002d2e57600080fd5b810190808051906020019092919050505073ffffffffffffffffffffffffffffffffffffffff161462002dad576040517f08c379a00000000000000000000000000000000000000000000000000000000081526004018080602001828103825260298152602001806200683f6029913960400191505060405180910390fd5b6000600160009054906101000a900473ffffffffffffffffffffffffffffffffffffffff1673ffffffffffffffffffffffffffffffffffffffff1663ed6ff7606040518163ffffffff1660e01b815260040160206040518083038186803b15801562002e1857600080fd5b505afa15801562002e2d573d6000803e3d6000fd5b505050506040513d602081101562002e4457600080fd5b810190808051906020019092919050505090508073ffffffffffffffffffffffffffffffffffffffff1663d466016f84846040518363ffffffff1660e01b8152600401808373ffffffffffffffffffffffffffffffffffffffff1673ffffffffffffffffffffffffffffffffffffffff16815260200182815260200192505050600060405180830381600087803b15801562002edf57600080fd5b505af115801562002ef4573d6000803e3d6000fd5b50505050505050565b3373ffffffffffffffffffffffffffffffffffffffff16600160009054906101000a900473ffffffffffffffffffffffffffffffffffffffff1673ffffffffffffffffffffffffffffffffffffffff166333128d596040518163ffffffff1660e01b815260040160206040518083038186803b15801562002f7d57600080fd5b505afa15801562002f92573d6000803e3d6000fd5b505050506040513d602081101562002fa957600080fd5b810190808051906020019092919050505073ffffffffffffffffffffffffffffffffffffffff161462003028576040517f08c379a00000000000000000000000000000000000000000000000000000000081526004018080602001828103825260298152602001806200683f6029913960400191505060405180910390fd5b6000600160009054906101000a900473ffffffffffffffffffffffffffffffffffffffff1673ffffffffffffffffffffffffffffffffffffffff1663ed6ff7606040518163ffffffff1660e01b815260040160206040518083038186803b1580156200309357600080fd5b505afa158015620030a8573d6000803e3d6000fd5b505050506040513d6020811015620030bf57600080fd5b810190808051906020019092919050505090508073ffffffffffffffffffffffffffffffffffffffff1663d7e07581836040518263ffffffff1660e01b8152600401808273ffffffffffffffffffffffffffffffffffffffff1673ffffffffffffffffffffffffffffffffffffffff168152602001915050600060405180830381600087803b1580156200315257600080fd5b505af115801562003167573d6000803e3d6000fd5b505050508173ffffffffffffffffffffffffffffffffffffffff167fd4fb373808cfe3d293bd3d3826c216194001d776dff64c75ae047dfda7f564de60405160405180910390a25050565b3373ffffffffffffffffffffffffffffffffffffffff16600160009054906101000a900473ffffffffffffffffffffffffffffffffffffffff1673ffffffffffffffffffffffffffffffffffffffff166333128d596040518163ffffffff1660e01b815260040160206040518083038186803b1580156200323257600080fd5b505afa15801562003247573d6000803e3d6000fd5b505050506040513d60208110156200325e57600080fd5b810190808051906020019092919050505073ffffffffffffffffffffffffffffffffffffffff1614620032dd576040517f08c379a00000000000000000000000000000000000000000000000000000000081526004018080602001828103825260298152602001806200683f6029913960400191505060405180910390fd5b6000600160009054906101000a900473ffffffffffffffffffffffffffffffffffffffff1673ffffffffffffffffffffffffffffffffffffffff1663ed6ff7606040518163ffffffff1660e01b815260040160206040518083038186803b1580156200334857600080fd5b505afa1580156200335d573d6000803e3d6000fd5b505050506040513d60208110156200337457600080fd5b810190808051906020019092919050505090508073ffffffffffffffffffffffffffffffffffffffff1663646810836040518163ffffffff1660e01b8152600401600060405180830381600087803b158015620033d057600080fd5b505af1158015620033e5573d6000803e3d6000fd5b5050505050565b3373ffffffffffffffffffffffffffffffffffffffff16600160009054906101000a900473ffffffffffffffffffffffffffffffffffffffff1673ffffffffffffffffffffffffffffffffffffffff166333128d596040518163ffffffff1660e01b815260040160206040518083038186803b1580156200346c57600080fd5b505afa15801562003481573d6000803e3d6000fd5b505050506040513d60208110156200349857600080fd5b810190808051906020019092919050505073ffffffffffffffffffffffffffffffffffffffff161462003517576040517f08c379a00000000000000000000000000000000000000000000000000000000081526004018080602001828103825260298152602001806200683f6029913960400191505060405180910390fd5b6000600160009054906101000a900473ffffffffffffffffffffffffffffffffffffffff1673ffffffffffffffffffffffffffffffffffffffff1663ed6ff7606040518163ffffffff1660e01b815260040160206040518083038186803b1580156200358257600080fd5b505afa15801562003597573d6000803e3d6000fd5b505050506040513d6020811015620035ae57600080fd5b810190808051906020019092919050505090508073ffffffffffffffffffffffffffffffffffffffff1663e8ae2f5b836040518263ffffffff1660e01b8152600401808273ffffffffffffffffffffffffffffffffffffffff1673ffffffffffffffffffffffffffffffffffffffff168152602001915050600060405180830381600087803b1580156200364157600080fd5b505af115801562003656573d6000803e3d6000fd5b505050508173ffffffffffffffffffffffffffffffffffffffff167f9cc75e4cafc9a556a369bc53468649075680eb554d225d5918f199453824796d60405160405180910390a25050565b3373ffffffffffffffffffffffffffffffffffffffff16600160009054906101000a900473ffffffffffffffffffffffffffffffffffffffff1673ffffffffffffffffffffffffffffffffffffffff166333128d596040518163ffffffff1660e01b815260040160206040518083038186803b1580156200372157600080fd5b505afa15801562003736573d6000803e3d6000fd5b505050506040513d60208110156200374d57600080fd5b810190808051906020019092919050505073ffffffffffffffffffffffffffffffffffffffff1614620037cc576040517f08c379a00000000000000000000000000000000000000000000000000000000081526004018080602001828103825260298152602001806200683f6029913960400191505060405180910390fd5b6000600160009054906101000a900473ffffffffffffffffffffffffffffffffffffffff1673ffffffffffffffffffffffffffffffffffffffff1663ed6ff7606040518163ffffffff1660e01b815260040160206040518083038186803b1580156200383757600080fd5b505afa1580156200384c573d6000803e3d6000fd5b505050506040513d60208110156200386357600080fd5b810190808051906020019092919050505090508073ffffffffffffffffffffffffffffffffffffffff1663eede87c184846040518363ffffffff1660e01b8152600401808373ffffffffffffffffffffffffffffffffffffffff1673ffffffffffffffffffffffffffffffffffffffff1681526020018215151515815260200192505050600060405180830381600087803b1580156200390257600080fd5b505af115801562003917573d6000803e3d6000fd5b505050507fab2f7f9e5ca2772fafa94f355c1842a80ae6b9e41f83083098d81f67d7a0b5088383604051808373ffffffffffffffffffffffffffffffffffffffff1673ffffffffffffffffffffffffffffffffffffffff168152602001821515151581526020019250505060405180910390a1505050565b62003999620019dc565b62003a0c576040517f08c379a00000000000000000000000000000000000000000000000000000000081526004018080602001828103825260208152602001807f4f776e61626c653a2063616c6c6572206973206e6f7420746865206f776e657281525060200191505060405180910390fd5b62003a178162003a22565b50565b600033905090565b600073ffffffffffffffffffffffffffffffffffffffff168173ffffffffffffffffffffffffffffffffffffffff16141562003aaa576040517f08c379a0000000000000000000000000000000000000000000000000000000008152600401808060200182810382526026815260200180620068196026913960400191505060405180910390fd5b8073ffffffffffffffffffffffffffffffffffffffff166000809054906101000a900473ffffffffffffffffffffffffffffffffffffffff1673ffffffffffffffffffffffffffffffffffffffff167f8be0079c531659141344cd1fd0a4f28419497f9722a3daafe3b4186f6b6457e060405160405180910390a3806000806101000a81548173ffffffffffffffffffffffffffffffffffffffff021916908373ffffffffffffffffffffffffffffffffffffffff16021790555050565b612ca28062003b778339019056fe60806040523480156200001157600080fd5b5060405162002ca238038062002ca2833981810160405260e08110156200003757600080fd5b81019080805190602001909291908051906020019092919080519060200190929190805160405193929190846401000000008211156200007657600080fd5b838201915060208201858111156200008d57600080fd5b8251866001820283011164010000000082111715620000ab57600080fd5b8083526020830192505050908051906020019080838360005b83811015620000e1578082015181840152602081019050620000c4565b50505050905090810190601f1680156200010f5780820380516001836020036101000a031916815260200191505b50604052602001805160405193929190846401000000008211156200013357600080fd5b838201915060208201858111156200014a57600080fd5b82518660018202830111640100000000821117156200016857600080fd5b8083526020830192505050908051906020019080838360005b838110156200019e57808201518184015260208101905062000181565b50505050905090810190601f168015620001cc5780820380516001836020036101000a031916815260200191505b506040526020018051906020019092919080519060200190929190505050838383826003908051906020019062000205929190620003c0565b5081600490805190602001906200021e929190620003c0565b5080600560006101000a81548160ff021916908360ff16021790555050505086600860006101000a81548173ffffffffffffffffffffffffffffffffffffffff021916908373ffffffffffffffffffffffffffffffffffffffff160217905550600860009054906101000a900473ffffffffffffffffffffffffffffffffffffffff1673ffffffffffffffffffffffffffffffffffffffff1663ed6ff7606040518163ffffffff1660e01b815260040160206040518083038186803b158015620002e757600080fd5b505afa158015620002fc573d6000803e3d6000fd5b505050506040513d60208110156200031357600080fd5b8101908080519060200190929190505050600960006101000a81548173ffffffffffffffffffffffffffffffffffffffff021916908373ffffffffffffffffffffffffffffffffffffffff1602179055508060078190555085600560016101000a81548173ffffffffffffffffffffffffffffffffffffffff021916908373ffffffffffffffffffffffffffffffffffffffff16021790555084600681905550505050505050506200046f565b828054600181600116156101000203166002900490600052602060002090601f016020900481019282601f106200040357805160ff191683800117855562000434565b8280016001018555821562000434579182015b828111156200043357825182559160200191906001019062000416565b5b50905062000443919062000447565b5090565b6200046c91905b80821115620004685760008160009055506001016200044e565b5090565b90565b612823806200047f6000396000f3fe608060405234801561001057600080fd5b506004361061014d5760003560e01c806370a08231116100c3578063a9059cbb1161007c578063a9059cbb146106cc578063b32d461014610732578063db006a7514610774578063dd62ed3e146107a2578063e6aa216c1461081a578063f866c319146108385761014d565b806370a08231146104d557806389d1a0fc1461052d57806394362e8b1461057757806395d89b41146105c55780639a32c20714610648578063a457c2d7146106665761014d565b8063313ce56711610115578063313ce5671461032157806339509351146103455780633af9e669146103ab5780633edb7cb8146104035780635eae177c146104515780636d019f35146104b75761014d565b806306fdde0314610152578063095ea7b3146101d55780630ece1a5f1461023b57806318160ddd1461027d57806323b872dd1461029b575b600080fd5b61015a6108a6565b6040518080602001828103825283818151815260200191508051906020019080838360005b8381101561019a57808201518184015260208101905061017f565b50505050905090810190601f1680156101c75780820380516001836020036101000a031916815260200191505b509250505060405180910390f35b610221600480360360408110156101eb57600080fd5b81019080803573ffffffffffffffffffffffffffffffffffffffff16906020019092919080359060200190929190505050610948565b604051808215151515815260200191505060405180910390f35b6102676004803603602081101561025157600080fd5b8101908080359060200190929190505050610966565b6040518082815260200191505060405180910390f35b6102856109e7565b6040518082815260200191505060405180910390f35b610307600480360360608110156102b157600080fd5b81019080803573ffffffffffffffffffffffffffffffffffffffff169060200190929190803573ffffffffffffffffffffffffffffffffffffffff169060200190929190803590602001909291905050506109f1565b604051808215151515815260200191505060405180910390f35b610329610aca565b604051808260ff1660ff16815260200191505060405180910390f35b6103916004803603604081101561035b57600080fd5b81019080803573ffffffffffffffffffffffffffffffffffffffff16906020019092919080359060200190929190505050610ae1565b604051808215151515815260200191505060405180910390f35b6103ed600480360360208110156103c157600080fd5b81019080803573ffffffffffffffffffffffffffffffffffffffff169060200190929190505050610b94565b6040518082815260200191505060405180910390f35b61044f6004803603604081101561041957600080fd5b81019080803573ffffffffffffffffffffffffffffffffffffffff16906020019092919080359060200190929190505050610bae565b005b61049d6004803603604081101561046757600080fd5b81019080803573ffffffffffffffffffffffffffffffffffffffff16906020019092919080359060200190929190505050610d50565b604051808215151515815260200191505060405180910390f35b6104bf610f25565b6040518082815260200191505060405180910390f35b610517600480360360208110156104eb57600080fd5b81019080803573ffffffffffffffffffffffffffffffffffffffff169060200190929190505050610f2b565b6040518082815260200191505060405180910390f35b610535610f73565b604051808273ffffffffffffffffffffffffffffffffffffffff1673ffffffffffffffffffffffffffffffffffffffff16815260200191505060405180910390f35b6105c36004803603604081101561058d57600080fd5b81019080803573ffffffffffffffffffffffffffffffffffffffff16906020019092919080359060200190929190505050610f99565b005b6105cd611141565b6040518080602001828103825283818151815260200191508051906020019080838360005b8381101561060d5780820151818401526020810190506105f2565b50505050905090810190601f16801561063a5780820380516001836020036101000a031916815260200191505b509250505060405180910390f35b6106506111e3565b6040518082815260200191505060405180910390f35b6106b26004803603604081101561067c57600080fd5b81019080803573ffffffffffffffffffffffffffffffffffffffff169060200190929190803590602001909291905050506111e9565b604051808215151515815260200191505060405180910390f35b610718600480360360408110156106e257600080fd5b81019080803573ffffffffffffffffffffffffffffffffffffffff169060200190929190803590602001909291905050506112b6565b604051808215151515815260200191505060405180910390f35b61075e6004803603602081101561074857600080fd5b81019080803590602001909291905050506112d4565b6040518082815260200191505060405180910390f35b6107a06004803603602081101561078a57600080fd5b8101908080359060200190929190505050611328565b005b610804600480360360408110156107b857600080fd5b81019080803573ffffffffffffffffffffffffffffffffffffffff169060200190929190803573ffffffffffffffffffffffffffffffffffffffff1690602001909291905050506115c6565b6040518082815260200191505060405180910390f35b61082261164d565b6040518082815260200191505060405180910390f35b6108a46004803603606081101561084e57600080fd5b81019080803573ffffffffffffffffffffffffffffffffffffffff169060200190929190803573ffffffffffffffffffffffffffffffffffffffff16906020019092919080359060200190929190505050611769565b005b606060038054600181600116156101000203166002900480601f01602080910402602001604051908101604052809291908181526020018280546001816001161561010002031660029004801561093e5780601f106109135761010080835404028352916020019161093e565b820191906000526020600020905b81548152906001019060200180831161092157829003601f168201915b5050505050905090565b600061095c610955611934565b848461193c565b6001905092915050565b60008082141561097957600090506109e2565b6000610983610aca565b60ff16600a0a90506109de6109d9826109cb600654600a0a6109bd6109a661164d565b6109af8a611b33565b611b5390919063ffffffff16565b611baf90919063ffffffff16565b611c3590919063ffffffff16565b611c7f565b9150505b919050565b6000600254905090565b60006109fe848484611c9f565b610abf84610a0a611934565b610aba8560405180606001604052806028815260200161273860289139600160008b73ffffffffffffffffffffffffffffffffffffffff1673ffffffffffffffffffffffffffffffffffffffff1681526020019081526020016000206000610a70611934565b73ffffffffffffffffffffffffffffffffffffffff1673ffffffffffffffffffffffffffffffffffffffff16815260200190815260200160002054611dc49092919063ffffffff16565b61193c565b600190509392505050565b6000600560009054906101000a900460ff16905090565b6000610b8a610aee611934565b84610b858560016000610aff611934565b73ffffffffffffffffffffffffffffffffffffffff1673ffffffffffffffffffffffffffffffffffffffff16815260200190815260200160002060008973ffffffffffffffffffffffffffffffffffffffff1673ffffffffffffffffffffffffffffffffffffffff16815260200190815260200160002054611e8490919063ffffffff16565b61193c565b6001905092915050565b6000610ba7610ba283610f2b565b610966565b9050919050565b600860009054906101000a900473ffffffffffffffffffffffffffffffffffffffff1673ffffffffffffffffffffffffffffffffffffffff16630261bf8b6040518163ffffffff1660e01b815260040160206040518083038186803b158015610c1657600080fd5b505afa158015610c2a573d6000803e3d6000fd5b505050506040513d6020811015610c4057600080fd5b810190808051906020019092919050505073ffffffffffffffffffffffffffffffffffffffff163373ffffffffffffffffffffffffffffffffffffffff1614610cd4576040517f08c379a00000000000000000000000000000000000000000000000000000000081526004018080602001828103825260368152602001806127026036913960400191505060405180910390fd5b610cde8282611f0c565b8173ffffffffffffffffffffffffffffffffffffffff167f90e5d3d68ec162d9c7de393037a3ede04dd44f68e051bf2ace4a73c299dbc4db82610d2084610966565b610d2986610f2b565b60405180848152602001838152602001828152602001935050505060405180910390a25050565b600080600860009054906101000a900473ffffffffffffffffffffffffffffffffffffffff1673ffffffffffffffffffffffffffffffffffffffff16632f58b80d6040518163ffffffff1660e01b815260040160206040518083038186803b158015610dbb57600080fd5b505afa158015610dcf573d6000803e3d6000fd5b505050506040513d6020811015610de557600080fd5b810190808051906020019092919050505090506000610e0384610966565b90508173ffffffffffffffffffffffffffffffffffffffff166376e9d615600560019054906101000a900473ffffffffffffffffffffffffffffffffffffffff1687846040518463ffffffff1660e01b8152600401808473ffffffffffffffffffffffffffffffffffffffff1673ffffffffffffffffffffffffffffffffffffffff1681526020018373ffffffffffffffffffffffffffffffffffffffff1673ffffffffffffffffffffffffffffffffffffffff168152602001828152602001935050505060206040518083038186803b158015610ee057600080fd5b505afa158015610ef4573d6000803e3d6000fd5b505050506040513d6020811015610f0a57600080fd5b81019080805190602001909291905050509250505092915050565b60075481565b60008060008373ffffffffffffffffffffffffffffffffffffffff1673ffffffffffffffffffffffffffffffffffffffff168152602001908152602001600020549050919050565b600560019054906101000a900473ffffffffffffffffffffffffffffffffffffffff1681565b600860009054906101000a900473ffffffffffffffffffffffffffffffffffffffff1673ffffffffffffffffffffffffffffffffffffffff16630261bf8b6040518163ffffffff1660e01b815260040160206040518083038186803b15801561100157600080fd5b505afa158015611015573d6000803e3d6000fd5b505050506040513d602081101561102b57600080fd5b810190808051906020019092919050505073ffffffffffffffffffffffffffffffffffffffff163373ffffffffffffffffffffffffffffffffffffffff16146110bf576040517f08c379a00000000000000000000000000000000000000000000000000000000081526004018080602001828103825260368152602001806127026036913960400191505060405180910390fd5b60006110ca826112d4565b90506110d683826120c4565b8273ffffffffffffffffffffffffffffffffffffffff167fbe7799898ca2d813ff902b487c1b434ab45b47edd8f38b77ad5e99aae8341b7a828461111987610f2b565b60405180848152602001838152602001828152602001935050505060405180910390a2505050565b606060048054600181600116156101000203166002900480601f0160208091040260200160405190810160405280929190818152602001828054600181600116156101000203166002900480156111d95780601f106111ae576101008083540402835291602001916111d9565b820191906000526020600020905b8154815290600101906020018083116111bc57829003601f168201915b5050505050905090565b60065481565b60006112ac6111f6611934565b846112a7856040518060600160405280602581526020016127ca6025913960016000611220611934565b73ffffffffffffffffffffffffffffffffffffffff1673ffffffffffffffffffffffffffffffffffffffff16815260200190815260200160002060008a73ffffffffffffffffffffffffffffffffffffffff1673ffffffffffffffffffffffffffffffffffffffff16815260200190815260200160002054611dc49092919063ffffffff16565b61193c565b6001905092915050565b60006112ca6112c3611934565b8484611c9f565b6001905092915050565b6000808214156112e75760009050611323565b61132061131b600654600a0a61130d6112fe61164d565b86611baf90919063ffffffff16565b611c3590919063ffffffff16565b611c7f565b90505b919050565b33816113348282610d50565b6113a6576040517f08c379a000000000000000000000000000000000000000000000000000000000815260040180806020018281038252601b8152602001807f5472616e736665722063616e6e6f7420626520616c6c6f7765642e000000000081525060200191505060405180910390fd5b60006113b184610966565b90506113bd338561227f565b6000600860009054906101000a900473ffffffffffffffffffffffffffffffffffffffff1673ffffffffffffffffffffffffffffffffffffffff16630261bf8b6040518163ffffffff1660e01b815260040160206040518083038186803b15801561142757600080fd5b505afa15801561143b573d6000803e3d6000fd5b505050506040513d602081101561145157600080fd5b810190808051906020019092919050505090508073ffffffffffffffffffffffffffffffffffffffff1663935642cf600560019054906101000a900473ffffffffffffffffffffffffffffffffffffffff1633856040518463ffffffff1660e01b8152600401808473ffffffffffffffffffffffffffffffffffffffff1673ffffffffffffffffffffffffffffffffffffffff1681526020018373ffffffffffffffffffffffffffffffffffffffff1673ffffffffffffffffffffffffffffffffffffffff1681526020018281526020019350505050600060405180830381600087803b15801561154157600080fd5b505af1158015611555573d6000803e3d6000fd5b505050503373ffffffffffffffffffffffffffffffffffffffff167fbd5034ffbd47e4e72a94baa2cdb74c6fad73cb3bcdc13036b72ec8306f5a7646868461159c33610f2b565b60405180848152602001838152602001828152602001935050505060405180910390a25050505050565b6000600160008473ffffffffffffffffffffffffffffffffffffffff1673ffffffffffffffffffffffffffffffffffffffff16815260200190815260200160002060008373ffffffffffffffffffffffffffffffffffffffff1673ffffffffffffffffffffffffffffffffffffffff16815260200190815260200160002054905092915050565b600080600960009054906101000a900473ffffffffffffffffffffffffffffffffffffffff1673ffffffffffffffffffffffffffffffffffffffff1663d15e0053600560019054906101000a900473ffffffffffffffffffffffffffffffffffffffff166040518263ffffffff1660e01b8152600401808273ffffffffffffffffffffffffffffffffffffffff1673ffffffffffffffffffffffffffffffffffffffff16815260200191505060206040518083038186803b15801561171157600080fd5b505afa158015611725573d6000803e3d6000fd5b505050506040513d602081101561173b57600080fd5b8101908080519060200190929190505050905061176381600754611b5390919063ffffffff16565b91505090565b600860009054906101000a900473ffffffffffffffffffffffffffffffffffffffff1673ffffffffffffffffffffffffffffffffffffffff16630261bf8b6040518163ffffffff1660e01b815260040160206040518083038186803b1580156117d157600080fd5b505afa1580156117e5573d6000803e3d6000fd5b505050506040513d60208110156117fb57600080fd5b810190808051906020019092919050505073ffffffffffffffffffffffffffffffffffffffff163373ffffffffffffffffffffffffffffffffffffffff161461188f576040517f08c379a00000000000000000000000000000000000000000000000000000000081526004018080602001828103825260368152602001806127026036913960400191505060405180910390fd5b61189a83838361228d565b8173ffffffffffffffffffffffffffffffffffffffff168373ffffffffffffffffffffffffffffffffffffffff167f2c335084544f8f7476a1c2e460962cd7e50d03d52a940d3d09e6f25894c75df3836118f385610966565b6118fc88610f2b565b61190588610f2b565b6040518085815260200184815260200183815260200182815260200194505050505060405180910390a3505050565b600033905090565b600073ffffffffffffffffffffffffffffffffffffffff168373ffffffffffffffffffffffffffffffffffffffff1614156119c2576040517f08c379a00000000000000000000000000000000000000000000000000000000081526004018080602001828103825260248152602001806127a66024913960400191505060405180910390fd5b600073ffffffffffffffffffffffffffffffffffffffff168273ffffffffffffffffffffffffffffffffffffffff161415611a48576040517f08c379a00000000000000000000000000000000000000000000000000000000081526004018080602001828103825260228152602001806126996022913960400191505060405180910390fd5b80600160008573ffffffffffffffffffffffffffffffffffffffff1673ffffffffffffffffffffffffffffffffffffffff16815260200190815260200160002060008473ffffffffffffffffffffffffffffffffffffffff1673ffffffffffffffffffffffffffffffffffffffff168152602001908152602001600020819055508173ffffffffffffffffffffffffffffffffffffffff168373ffffffffffffffffffffffffffffffffffffffff167f8c5be1e5ebec7d5bd14f71427d1e84f3dd0314c0f7b2291e5b200ac8c7c3b925836040518082815260200191505060405180910390a3505050565b6000611b4c633b9aca0083611baf90919063ffffffff16565b9050919050565b60008060028381611b6057fe5b049050611ba683611b98611b896b033b2e3c9fd0803ce800000088611baf90919063ffffffff16565b84611e8490919063ffffffff16565b611c3590919063ffffffff16565b91505092915050565b600080831415611bc25760009050611c2f565b6000828402905082848281611bd357fe5b0414611c2a576040517f08c379a00000000000000000000000000000000000000000000000000000000081526004018080602001828103825260218152602001806126e16021913960400191505060405180910390fd5b809150505b92915050565b6000611c7783836040518060400160405280601a81526020017f536166654d6174683a206469766973696f6e206279207a65726f000000000000815250612543565b905092915050565b6000611c98633b9aca0083611c3590919063ffffffff16565b9050919050565b8281611cab8282610d50565b611d1d576040517f08c379a000000000000000000000000000000000000000000000000000000000815260040180806020018281038252601b8152602001807f5472616e736665722063616e6e6f7420626520616c6c6f7765642e000000000081525060200191505060405180910390fd5b611d2885858561228d565b8373ffffffffffffffffffffffffffffffffffffffff168573ffffffffffffffffffffffffffffffffffffffff167fbf553f39591e51c9524a30865d4a5590424976ba75d2046a6c7ce15d6321b62485611d8187610966565b611d8a8a610f2b565b611d938a610f2b565b6040518085815260200184815260200183815260200182815260200194505050505060405180910390a35050505050565b6000838311158290611e71576040517f08c379a00000000000000000000000000000000000000000000000000000000081526004018080602001828103825283818151815260200191508051906020019080838360005b83811015611e36578082015181840152602081019050611e1b565b50505050905090810190601f168015611e635780820380516001836020036101000a031916815260200191505b509250505060405180910390fd5b5060008385039050809150509392505050565b600080828401905083811015611f02576040517f08c379a000000000000000000000000000000000000000000000000000000000815260040180806020018281038252601b8152602001807f536166654d6174683a206164646974696f6e206f766572666c6f77000000000081525060200191505060405180910390fd5b8091505092915050565b600073ffffffffffffffffffffffffffffffffffffffff168273ffffffffffffffffffffffffffffffffffffffff161415611f92576040517f08c379a00000000000000000000000000000000000000000000000000000000081526004018080602001828103825260218152602001806127606021913960400191505060405180910390fd5b611ffd81604051806060016040528060228152602001612677602291396000808673ffffffffffffffffffffffffffffffffffffffff1673ffffffffffffffffffffffffffffffffffffffff16815260200190815260200160002054611dc49092919063ffffffff16565b6000808473ffffffffffffffffffffffffffffffffffffffff1673ffffffffffffffffffffffffffffffffffffffff168152602001908152602001600020819055506120548160025461260990919063ffffffff16565b600281905550600073ffffffffffffffffffffffffffffffffffffffff168273ffffffffffffffffffffffffffffffffffffffff167fddf252ad1be2c89b69c2b068fc378daa952ba7f163c4a11628f55a4df523b3ef836040518082815260200191505060405180910390a35050565b600073ffffffffffffffffffffffffffffffffffffffff168273ffffffffffffffffffffffffffffffffffffffff161415612167576040517f08c379a000000000000000000000000000000000000000000000000000000000815260040180806020018281038252601f8152602001807f45524332303a206d696e7420746f20746865207a65726f20616464726573730081525060200191505060405180910390fd5b61217c81600254611e8490919063ffffffff16565b6002819055506121d3816000808573ffffffffffffffffffffffffffffffffffffffff1673ffffffffffffffffffffffffffffffffffffffff16815260200190815260200160002054611e8490919063ffffffff16565b6000808473ffffffffffffffffffffffffffffffffffffffff1673ffffffffffffffffffffffffffffffffffffffff168152602001908152602001600020819055508173ffffffffffffffffffffffffffffffffffffffff16600073ffffffffffffffffffffffffffffffffffffffff167fddf252ad1be2c89b69c2b068fc378daa952ba7f163c4a11628f55a4df523b3ef836040518082815260200191505060405180910390a35050565b6122898282611f0c565b5050565b600073ffffffffffffffffffffffffffffffffffffffff168373ffffffffffffffffffffffffffffffffffffffff161415612313576040517f08c379a00000000000000000000000000000000000000000000000000000000081526004018080602001828103825260258152602001806127816025913960400191505060405180910390fd5b600073ffffffffffffffffffffffffffffffffffffffff168273ffffffffffffffffffffffffffffffffffffffff161415612399576040517f08c379a00000000000000000000000000000000000000000000000000000000081526004018080602001828103825260238152602001806126546023913960400191505060405180910390fd5b612404816040518060600160405280602681526020016126bb602691396000808773ffffffffffffffffffffffffffffffffffffffff1673ffffffffffffffffffffffffffffffffffffffff16815260200190815260200160002054611dc49092919063ffffffff16565b6000808573ffffffffffffffffffffffffffffffffffffffff1673ffffffffffffffffffffffffffffffffffffffff16815260200190815260200160002081905550612497816000808573ffffffffffffffffffffffffffffffffffffffff1673ffffffffffffffffffffffffffffffffffffffff16815260200190815260200160002054611e8490919063ffffffff16565b6000808473ffffffffffffffffffffffffffffffffffffffff1673ffffffffffffffffffffffffffffffffffffffff168152602001908152602001600020819055508173ffffffffffffffffffffffffffffffffffffffff168373ffffffffffffffffffffffffffffffffffffffff167fddf252ad1be2c89b69c2b068fc378daa952ba7f163c4a11628f55a4df523b3ef836040518082815260200191505060405180910390a3505050565b600080831182906125ef576040517f08c379a00000000000000000000000000000000000000000000000000000000081526004018080602001828103825283818151815260200191508051906020019080838360005b838110156125b4578082015181840152602081019050612599565b50505050905090810190601f1680156125e15780820380516001836020036101000a031916815260200191505b509250505060405180910390fd5b5060008385816125fb57fe5b049050809150509392505050565b600061264b83836040518060400160405280601e81526020017f536166654d6174683a207375627472616374696f6e206f766572666c6f770000815250611dc4565b90509291505056fe45524332303a207472616e7366657220746f20746865207a65726f206164647265737345524332303a206275726e20616d6f756e7420657863656564732062616c616e636545524332303a20617070726f766520746f20746865207a65726f206164647265737345524332303a207472616e7366657220616d6f756e7420657863656564732062616c616e6365536166654d6174683a206d756c7469706c69636174696f6e206f766572666c6f775468652063616c6c6572206f6620746869732066756e6374696f6e2063616e206f6e6c792062652061206c656e64696e6720706f6f6c45524332303a207472616e7366657220616d6f756e74206578636565647320616c6c6f77616e636545524332303a206275726e2066726f6d20746865207a65726f206164647265737345524332303a207472616e736665722066726f6d20746865207a65726f206164647265737345524332303a20617070726f76652066726f6d20746865207a65726f206164647265737345524332303a2064656372656173656420616c6c6f77616e63652062656c6f77207a65726fa265627a7a72315820cab437400b622393f9e41f0deb4a897c072d6224fee5620e84acae3810d0327764736f6c634300050c00324f776e61626c653a206e6577206f776e657220697320746865207a65726f20616464726573735468652063616c6c6572206d7573742062652061206c656e64696e6720706f6f6c206d616e61676572a265627a7a72315820a5fa5370742760a74926439b447fc79685afc3b1788add411592460b46685f3a64736f6c634300050c0032",
  "source": "pragma solidity ^0.5.0;\r\n\r\nimport \"openzeppelin-solidity/contracts/ownership/Ownable.sol\";\r\nimport \"openzeppelin-solidity/contracts/math/SafeMath.sol\";\r\nimport \"openzeppelin-solidity/contracts/token/ERC20/ERC20Detailed.sol\";\r\nimport \"../libraries/CoreLibrary.sol\";\r\nimport \"../configuration/LendingPoolAddressesProvider.sol\";\r\nimport \"./LendingPoolCore.sol\";\r\nimport \"../interfaces/IFeeProvider.sol\";\r\nimport \"../tokenization/AToken.sol\";\r\n\r\n\r\n\r\n/*************************************************************************************\r\n@title LendingPoolConfigurator contract\r\n@author Aave\r\n@notice Executes configuration methods on the LendingPoolCore contract. Allows to enable/disable reserves,\r\nand set different protocol parameters.\r\n *************************************************************************************/\r\n\r\ncontract LendingPoolConfigurator is Ownable {\r\n\r\n    using SafeMath for uint256;\r\n\r\n    event ReserveInitialized(\r\n    address indexed _reserve,\r\n    address indexed _aToken,\r\n    uint256 _initialExchangeRate,\r\n    address _interestRateStrategyAddress);\r\n\r\n    event BorrowingEnabledOnReserve(\r\n        address _reserve,\r\n        bool _fixedRateEnabled\r\n    );\r\n\r\n    /**\r\n    @dev events\r\n     */\r\n    event BorrowingDisabledOnReserve(address indexed _reserve);\r\n    event ReserveEnabledAsCollateral(address indexed _reserve, uint256 _ltv, uint256 _liquidationThreshold);\r\n    event ReserveDisabledAsCollateral(address indexed _reserve);\r\n    event FixedRateEnabledOnReserve(address indexed _reserve);\r\n    event FixedRateDisabledOnReserve(address indexed _reserve);\r\n    event ReserveActivated(address indexed _reserve);\r\n    event ReserveDeactivated(address indexed _reserve);\r\n\r\n    LendingPoolAddressesProvider public poolAddressesProvider;\r\n    /**\r\n    @dev only lending pools can use functions affected by this modifier\r\n     */\r\n    modifier onlyLendingPoolManager {\r\n        require(\r\n            poolAddressesProvider.getLendingPoolManager() == msg.sender,\r\n            \"The caller must be a lending pool manager\"\r\n        );\r\n        _;\r\n    }\r\n\r\n    constructor(LendingPoolAddressesProvider _poolAddressesProvider)\r\n        public\r\n    {\r\n        poolAddressesProvider = _poolAddressesProvider;\r\n    }\r\n\r\n    /******************************************\r\n    @dev pool core managment functions\r\n     ******************************************/\r\n\r\n    function initReserve(\r\n        address _reserve,\r\n        uint256 _aTokenInitialExchangeRate,\r\n        uint256 _underlyingAssetDecimals,\r\n        address _interestRateStrategyAddress)\r\n        external\r\n        onlyLendingPoolManager\r\n    {\r\n        ERC20Detailed asset = ERC20Detailed(_reserve);\r\n\r\n        string memory aTokenName = string(abi.encodePacked(\"Aave Interest bearing \", asset.name()));\r\n        string memory aTokenSymbol = string(abi.encodePacked(\"a\", asset.symbol()));\r\n\r\n        initReserveWithData(\r\n            _reserve,\r\n            aTokenName,\r\n            aTokenSymbol,\r\n            _aTokenInitialExchangeRate,\r\n            _underlyingAssetDecimals,\r\n            _interestRateStrategyAddress);\r\n\r\n    }\r\n\r\n\r\n    /**\r\n    @notice initialises the reserve and instantiates the specific aToken with the specified initial exchange rate.\r\n     */\r\n    function initReserveWithData(\r\n        address _reserve,\r\n        string memory aTokenName,\r\n        string memory aTokenSymbol,\r\n        uint256 _aTokenInitialExchangeRate,\r\n        uint256 _underlyingAssetDecimals,\r\n        address _interestRateStrategyAddress)\r\n        public\r\n        onlyLendingPoolManager\r\n    {\r\n        LendingPoolCore core = LendingPoolCore(poolAddressesProvider.getLendingPoolCore());\r\n\r\n        AToken aTokenInstance = new AToken(\r\n            poolAddressesProvider,\r\n            _reserve,\r\n            _underlyingAssetDecimals,\r\n            aTokenName,\r\n            aTokenSymbol,\r\n            18,\r\n            _aTokenInitialExchangeRate\r\n        );\r\n        core.initReserve(_reserve, address(aTokenInstance), _underlyingAssetDecimals, _interestRateStrategyAddress);\r\n\r\n        emit ReserveInitialized(_reserve, address(aTokenInstance), _aTokenInitialExchangeRate, _interestRateStrategyAddress);\r\n    }\r\n\r\n\r\n    /**\r\n    @notice functions to enable/disable borrowing on reserve.\r\n     */\r\n    function enableBorrowingOnReserve(\r\n        address _reserve,\r\n        bool _fixedBorrowRateEnabled\r\n    ) external onlyLendingPoolManager {\r\n        LendingPoolCore core = LendingPoolCore(poolAddressesProvider.getLendingPoolCore());\r\n        core.enableBorrowingOnReserve(_reserve, _fixedBorrowRateEnabled);\r\n        emit BorrowingEnabledOnReserve(_reserve, _fixedBorrowRateEnabled);\r\n    }\r\n\r\n    function disableBorrowingOnReserve(address _reserve) external onlyLendingPoolManager {\r\n        LendingPoolCore core = LendingPoolCore(poolAddressesProvider.getLendingPoolCore());\r\n        core.disableBorrowingOnReserve(_reserve);\r\n\r\n        emit BorrowingDisabledOnReserve(_reserve);\r\n    }\r\n\r\n    /**\r\n    @notice functions to enable/disable usage of the reserve as collateral.\r\n     */\r\n\r\n\r\n    function enableReserveAsCollateral(address _reserve, uint256 _baseLTVasCollateral, uint256 _liquidationThreshold)\r\n        external\r\n        onlyLendingPoolManager\r\n    {\r\n        LendingPoolCore core = LendingPoolCore(poolAddressesProvider.getLendingPoolCore());\r\n        core.enableReserveAsCollateral(_reserve, _baseLTVasCollateral, _liquidationThreshold);\r\n        emit ReserveEnabledAsCollateral(_reserve, _baseLTVasCollateral, _liquidationThreshold);\r\n    }\r\n\r\n    function disableReserveAsCollateral(address _reserve) external onlyLendingPoolManager {\r\n        LendingPoolCore core = LendingPoolCore(poolAddressesProvider.getLendingPoolCore());\r\n        core.disableReserveAsCollateral(_reserve);\r\n\r\n        emit ReserveDisabledAsCollateral(_reserve);\r\n    }\r\n\r\n    /**\r\n    @notice functions to enable/disable fixed borrow rate mode on a reserve.\r\n     */\r\n\r\n\r\n    function enableReserveFixedBorrowRate(address _reserve) external onlyLendingPoolManager {\r\n        LendingPoolCore core = LendingPoolCore(poolAddressesProvider.getLendingPoolCore());\r\n        core.enableReserveFixedBorrowRate(_reserve);\r\n\r\n        emit FixedRateEnabledOnReserve(_reserve);\r\n    }\r\n\r\n    function disableReserveFixedBorrowRate(address _reserve) external onlyLendingPoolManager {\r\n        LendingPoolCore core = LendingPoolCore(poolAddressesProvider.getLendingPoolCore());\r\n        core.disableReserveFixedBorrowRate(_reserve);\r\n\r\n        emit FixedRateDisabledOnReserve(_reserve);\r\n    }\r\n\r\n    function activateReserve(address _reserve) external onlyLendingPoolManager {\r\n        LendingPoolCore core = LendingPoolCore(poolAddressesProvider.getLendingPoolCore());\r\n        core.activateReserve(_reserve);\r\n\r\n        emit ReserveActivated(_reserve);\r\n    }\r\n\r\n    function deactivateReserve(address _reserve) external onlyLendingPoolManager {\r\n        LendingPoolCore core = LendingPoolCore(poolAddressesProvider.getLendingPoolCore());\r\n        core.deactivateReserve(_reserve);\r\n\r\n        emit ReserveDeactivated(_reserve);\r\n    }\r\n\r\n\r\n    /***************\r\n    @dev functions to update available collaterals\r\n    @dev the interest rate and the ltv are expressed in percentage\r\n     ***************/\r\n\r\n    function setReserveBaseLTVasCollateral(address _reserve, uint256 _ltv) external onlyLendingPoolManager {\r\n        LendingPoolCore core = LendingPoolCore(poolAddressesProvider.getLendingPoolCore());\r\n        core.setReserveBaseLTVasCollateral(_reserve, _ltv);\r\n    }\r\n\r\n    function setReserveLiquidationThreshold(address _reserve, uint256 _threshold)\r\n        external\r\n        onlyLendingPoolManager\r\n    {\r\n        LendingPoolCore core = LendingPoolCore(poolAddressesProvider.getLendingPoolCore());\r\n        core.setReserveLiquidationThreshold(_reserve, _threshold);\r\n    }\r\n\r\n    function setReserveLiquidationDiscount(address _reserve, uint256 _threshold)\r\n        external\r\n        onlyLendingPoolManager\r\n    {\r\n        LendingPoolCore core = LendingPoolCore(poolAddressesProvider.getLendingPoolCore());\r\n        core.setReserveLiquidationDiscount(_reserve, _threshold);\r\n    }\r\n\r\n\r\n    function setReserveInterestRateStrategyAddress( address _reserve, address _rateStrategyAddress) external onlyLendingPoolManager {\r\n        LendingPoolCore core = LendingPoolCore(poolAddressesProvider.getLendingPoolCore());\r\n        core.setReserveInterestRateStrategyAddress(_reserve, _rateStrategyAddress);\r\n    }\r\n\r\n    function setLendingPoolCoreAddressesProvider(address _provider) external onlyLendingPoolManager {\r\n        LendingPoolCore core = LendingPoolCore(poolAddressesProvider.getLendingPoolCore());\r\n        core.setAddressesProvider(_provider);\r\n    }\r\n\r\n    function refreshLendingPoolCoreConfiguration() external onlyLendingPoolManager {\r\n        LendingPoolCore core = LendingPoolCore(poolAddressesProvider.getLendingPoolCore());\r\n        core.refreshConfiguration();\r\n    }\r\n}\r\n",
  "sourcePath": "C:/Users/tredg/aave_flash/contracts/lendingpool/LendingPoolConfigurator.sol",
  "compiler": {
    "name": "solc",
    "version": "0.5.12+commit.7709ece9.Emscripten.clang"
  },
  "schemaVersion": "3.0.18",
  "updatedAt": "2019-11-10T09:13:14.522Z",
  "devdoc": {
    "author": "Aave",
    "methods": {
      "initReserve(address,uint256,uint256,address)": {
        "details": "pool core managment functions*****************************************"
      },
      "isOwner()": {
        "details": "Returns true if the caller is the current owner."
      },
      "owner()": {
        "details": "Returns the address of the current owner."
      },
      "renounceOwnership()": {
        "details": "Leaves the contract without owner. It will not be possible to call `onlyOwner` functions anymore. Can only be called by the current owner.     * NOTE: Renouncing ownership will leave the contract without an owner, thereby removing any functionality that is only available to the owner."
      },
      "setReserveBaseLTVasCollateral(address,uint256)": {
        "details": "functions to update available collateralsthe interest rate and the ltv are expressed in percentage**************"
      },
      "transferOwnership(address)": {
        "details": "Transfers ownership of the contract to a new account (`newOwner`). Can only be called by the current owner."
      }
    },
    "title": "LendingPoolConfigurator contract"
  },
  "userdoc": {
    "methods": {
      "enableBorrowingOnReserve(address,bool)": {
        "notice": "functions to enable/disable borrowing on reserve."
      },
      "enableReserveAsCollateral(address,uint256,uint256)": {
        "notice": "functions to enable/disable usage of the reserve as collateral."
      },
      "enableReserveFixedBorrowRate(address)": {
        "notice": "functions to enable/disable fixed borrow rate mode on a reserve."
      },
      "initReserve(address,uint256,uint256,address)": {
        "notice": "****************************************"
      },
      "initReserveWithData(address,string,string,uint256,uint256,address)": {
        "notice": "initialises the reserve and instantiates the specific aToken with the specified initial exchange rate."
      },
      "setReserveBaseLTVasCollateral(address,uint256)": {
        "notice": "*************"
      }
    },
    "notice": "***********************************************************************************Executes configuration methods on the LendingPoolCore contract. Allows to enable/disable reserves, and set different protocol parameters.************************************************************************************"
  }
}