{
  "contractName": "LendingPoolLiquidationManager",
  "abi": [
    {
      "anonymous": false,
      "inputs": [],
      "name": "LiquidationCompleted",
      "type": "event"
    },
    {
      "constant": true,
      "inputs": [],
      "name": "addressesProvider",
      "outputs": [
        {
          "internalType": "contract LendingPoolAddressesProvider",
          "name": "",
          "type": "address"
        }
      ],
      "payable": false,
      "stateMutability": "view",
      "type": "function"
    },
    {
      "constant": false,
      "inputs": [
        {
          "internalType": "address",
          "name": "_collateral",
          "type": "address"
        },
        {
          "internalType": "address",
          "name": "_reserve",
          "type": "address"
        },
        {
          "internalType": "address",
          "name": "_user",
          "type": "address"
        },
        {
          "internalType": "uint256",
          "name": "_purchaseAmount",
          "type": "uint256"
        },
        {
          "internalType": "bool",
          "name": "_receiveAToken",
          "type": "bool"
        }
      ],
      "name": "liquidationCall",
      "outputs": [
        {
          "internalType": "uint256",
          "name": "",
          "type": "uint256"
        },
        {
          "internalType": "string",
          "name": "",
          "type": "string"
        }
      ],
      "payable": true,
      "stateMutability": "payable",
      "type": "function"
    }
  ],
  "bytecode": "0x608060405260016000819055506123e38061001b6000396000f3fe6080604052600436106100285760003560e01c8062a718a91461002d578063c72c4d1014610147575b600080fd5b6100c5600480360360a081101561004357600080fd5b81019080803573ffffffffffffffffffffffffffffffffffffffff169060200190929190803573ffffffffffffffffffffffffffffffffffffffff169060200190929190803573ffffffffffffffffffffffffffffffffffffffff1690602001909291908035906020019092919080351515906020019092919050505061019e565b6040518083815260200180602001828103825283818151815260200191508051906020019080838360005b8381101561010b5780820151818401526020810190506100f0565b50505050905090810190601f1680156101385780820380516001836020036101000a031916815260200191505b50935050505060405180910390f35b34801561015357600080fd5b5061015c611b86565b604051808273ffffffffffffffffffffffffffffffffffffffff1673ffffffffffffffffffffffffffffffffffffffff16815260200191505060405180910390f35b600060606101aa612252565b600360009054906101000a900473ffffffffffffffffffffffffffffffffffffffff1673ffffffffffffffffffffffffffffffffffffffff16632c6d0e9b876040518263ffffffff1660e01b8152600401808273ffffffffffffffffffffffffffffffffffffffff1673ffffffffffffffffffffffffffffffffffffffff16815260200191505060c06040518083038186803b15801561024957600080fd5b505afa15801561025d573d6000803e3d6000fd5b505050506040513d60c081101561027357600080fd5b810190808051906020019092919080519060200190929190805190602001909291908051906020019092919080519060200190929190805190602001909291905050509091929394509091929350909192509091509050816000018181525050600360009054906101000a900473ffffffffffffffffffffffffffffffffffffffff1673ffffffffffffffffffffffffffffffffffffffff16633e44bee86040518163ffffffff1660e01b815260040160206040518083038186803b15801561033b57600080fd5b505afa15801561034f573d6000803e3d6000fd5b505050506040513d602081101561036557600080fd5b81019080805190602001909291905050508160000151106103b0576004600581111561038d57fe5b60405180606001604052806028815260200161235d602891399250925050611b7c565b600360009054906101000a900473ffffffffffffffffffffffffffffffffffffffff1673ffffffffffffffffffffffffffffffffffffffff166318a4dbca89886040518363ffffffff1660e01b8152600401808373ffffffffffffffffffffffffffffffffffffffff1673ffffffffffffffffffffffffffffffffffffffff1681526020018273ffffffffffffffffffffffffffffffffffffffff1673ffffffffffffffffffffffffffffffffffffffff1681526020019250505060206040518083038186803b15801561048357600080fd5b505afa158015610497573d6000803e3d6000fd5b505050506040513d60208110156104ad57600080fd5b810190808051906020019092919050505081602001818152505060008160200151141561052157600160058111156104e157fe5b6040518060400160405280601f81526020017f496e76616c696420636f6c6c61746572616c20746f206c6971756964617465008152509250925050611b7c565b600260009054906101000a900473ffffffffffffffffffffffffffffffffffffffff1673ffffffffffffffffffffffffffffffffffffffff166318f9bbae896040518263ffffffff1660e01b8152600401808273ffffffffffffffffffffffffffffffffffffffff1673ffffffffffffffffffffffffffffffffffffffff16815260200191505060206040518083038186803b1580156105c057600080fd5b505afa1580156105d4573d6000803e3d6000fd5b505050506040513d60208110156105ea57600080fd5b8101908080519060200190929190505050806107115750600260009054906101000a900473ffffffffffffffffffffffffffffffffffffffff1673ffffffffffffffffffffffffffffffffffffffff16639e3c4f3b89886040518363ffffffff1660e01b8152600401808373ffffffffffffffffffffffffffffffffffffffff1673ffffffffffffffffffffffffffffffffffffffff1681526020018273ffffffffffffffffffffffffffffffffffffffff1673ffffffffffffffffffffffffffffffffffffffff1681526020019250505060206040518083038186803b1580156106d457600080fd5b505afa1580156106e8573d6000803e3d6000fd5b505050506040513d60208110156106fe57600080fd5b8101908080519060200190929190505050155b8161014001901515908115158152505080610140015161075b576002600581111561073857fe5b6040518060600160405280602b81526020016122de602b91399250925050611b7c565b600260009054906101000a900473ffffffffffffffffffffffffffffffffffffffff1673ffffffffffffffffffffffffffffffffffffffff16639fb8afcd88886040518363ffffffff1660e01b8152600401808373ffffffffffffffffffffffffffffffffffffffff1673ffffffffffffffffffffffffffffffffffffffff1681526020018273ffffffffffffffffffffffffffffffffffffffff1673ffffffffffffffffffffffffffffffffffffffff1681526020019250505060606040518083038186803b15801561082e57600080fd5b505afa158015610842573d6000803e3d6000fd5b505050506040513d606081101561085857600080fd5b810190808051906020019092919080519060200190929190805190602001909291905050509091508260400183606001828152508281525050506000816040015114156108cf57600360058111156108ac57fe5b6040518060600160405280602a8152602001612385602a91399250925050611b7c565b6108fa60646108ec60328460400151611bac90919063ffffffff16565b611c3290919063ffffffff16565b81608001818152505080608001518511610914578461091a565b80608001515b8160a001818152505060008061093a8a8a8560a001518660200151611c7c565b915091508260a0015181101561095557808360a00181815250505b85610a73576000600260009054906101000a900473ffffffffffffffffffffffffffffffffffffffff1673ffffffffffffffffffffffffffffffffffffffff1663e24030198c6040518263ffffffff1660e01b8152600401808273ffffffffffffffffffffffffffffffffffffffff1673ffffffffffffffffffffffffffffffffffffffff16815260200191505060206040518083038186803b1580156109fb57600080fd5b505afa158015610a0f573d6000803e3d6000fd5b505050506040513d6020811015610a2557600080fd5b81019080805190602001909291905050509050828110610a7157600580811115610a4b57fe5b60405180606001604052806033815260200161232a603391399550955050505050611b7c565b505b600260009054906101000a900473ffffffffffffffffffffffffffffffffffffffff1673ffffffffffffffffffffffffffffffffffffffff166348dfc16e8a6040518263ffffffff1660e01b8152600401808273ffffffffffffffffffffffffffffffffffffffff1673ffffffffffffffffffffffffffffffffffffffff168152602001915050600060405180830381600087803b158015610b1457600080fd5b505af1158015610b28573d6000803e3d6000fd5b505050506000600260009054906101000a900473ffffffffffffffffffffffffffffffffffffffff1673ffffffffffffffffffffffffffffffffffffffff16631ca19f198b8b6040518363ffffffff1660e01b8152600401808373ffffffffffffffffffffffffffffffffffffffff1673ffffffffffffffffffffffffffffffffffffffff1681526020018273ffffffffffffffffffffffffffffffffffffffff1673ffffffffffffffffffffffffffffffffffffffff1681526020019250505060206040518083038186803b158015610c0157600080fd5b505afa158015610c15573d6000803e3d6000fd5b505050506040513d6020811015610c2b57600080fd5b81019080805190602001909291905050509050600260009054906101000a900473ffffffffffffffffffffffffffffffffffffffff1673ffffffffffffffffffffffffffffffffffffffff16638e65a6b08b86606001516040518363ffffffff1660e01b8152600401808373ffffffffffffffffffffffffffffffffffffffff1673ffffffffffffffffffffffffffffffffffffffff16815260200182815260200192505050600060405180830381600087803b158015610ceb57600080fd5b505af1158015610cff573d6000803e3d6000fd5b5050505060006001811115610d1057fe5b816001811115610d1c57fe5b1415610f1d576000600260009054906101000a900473ffffffffffffffffffffffffffffffffffffffff1673ffffffffffffffffffffffffffffffffffffffff166344e636b78c8c6040518363ffffffff1660e01b8152600401808373ffffffffffffffffffffffffffffffffffffffff1673ffffffffffffffffffffffffffffffffffffffff1681526020018273ffffffffffffffffffffffffffffffffffffffff1673ffffffffffffffffffffffffffffffffffffffff1681526020019250505060206040518083038186803b158015610df757600080fd5b505afa158015610e0b573d6000803e3d6000fd5b505050506040513d6020811015610e2157600080fd5b81019080805190602001909291905050509050600260009054906101000a900473ffffffffffffffffffffffffffffffffffffffff1673ffffffffffffffffffffffffffffffffffffffff1663b6e1f7028c610e8e88606001518960a0015161208290919063ffffffff16565b846040518463ffffffff1660e01b8152600401808473ffffffffffffffffffffffffffffffffffffffff1673ffffffffffffffffffffffffffffffffffffffff1681526020018381526020018281526020019350505050600060405180830381600087803b158015610eff57600080fd5b505af1158015610f13573d6000803e3d6000fd5b5050505050610ff9565b600260009054906101000a900473ffffffffffffffffffffffffffffffffffffffff1673ffffffffffffffffffffffffffffffffffffffff1663cc6ae7638b610f7787606001518860a0015161208290919063ffffffff16565b6040518363ffffffff1660e01b8152600401808373ffffffffffffffffffffffffffffffffffffffff1673ffffffffffffffffffffffffffffffffffffffff16815260200182815260200192505050600060405180830381600087803b158015610fe057600080fd5b505af1158015610ff4573d6000803e3d6000fd5b505050505b600260009054906101000a900473ffffffffffffffffffffffffffffffffffffffff1673ffffffffffffffffffffffffffffffffffffffff166342bbd6538b6040518263ffffffff1660e01b8152600401808273ffffffffffffffffffffffffffffffffffffffff1673ffffffffffffffffffffffffffffffffffffffff168152602001915050600060405180830381600087803b15801561109a57600080fd5b505af11580156110ae573d6000803e3d6000fd5b50505050600260009054906101000a900473ffffffffffffffffffffffffffffffffffffffff1673ffffffffffffffffffffffffffffffffffffffff16632717cbfb8b6040518263ffffffff1660e01b8152600401808273ffffffffffffffffffffffffffffffffffffffff1673ffffffffffffffffffffffffffffffffffffffff168152602001915050600060405180830381600087803b15801561115357600080fd5b505af1158015611167573d6000803e3d6000fd5b50505050600260009054906101000a900473ffffffffffffffffffffffffffffffffffffffff1673ffffffffffffffffffffffffffffffffffffffff1663a37b19578b8b6111c688606001518960a0015161208290919063ffffffff16565b6040518463ffffffff1660e01b8152600401808473ffffffffffffffffffffffffffffffffffffffff1673ffffffffffffffffffffffffffffffffffffffff1681526020018373ffffffffffffffffffffffffffffffffffffffff1673ffffffffffffffffffffffffffffffffffffffff1681526020018281526020019350505050600060405180830381600087803b15801561126257600080fd5b505af1158015611276573d6000803e3d6000fd5b50505050600260009054906101000a900473ffffffffffffffffffffffffffffffffffffffff1673ffffffffffffffffffffffffffffffffffffffff1663405300df8b8b6040518363ffffffff1660e01b8152600401808373ffffffffffffffffffffffffffffffffffffffff1673ffffffffffffffffffffffffffffffffffffffff1681526020018273ffffffffffffffffffffffffffffffffffffffff1673ffffffffffffffffffffffffffffffffffffffff16815260200192505050600060405180830381600087803b15801561134f57600080fd5b505af1158015611363573d6000803e3d6000fd5b50505050600260009054906101000a900473ffffffffffffffffffffffffffffffffffffffff1673ffffffffffffffffffffffffffffffffffffffff166348dfc16e8c6040518263ffffffff1660e01b8152600401808273ffffffffffffffffffffffffffffffffffffffff1673ffffffffffffffffffffffffffffffffffffffff168152602001915050600060405180830381600087803b15801561140857600080fd5b505af115801561141c573d6000803e3d6000fd5b505050506000600260009054906101000a900473ffffffffffffffffffffffffffffffffffffffff1673ffffffffffffffffffffffffffffffffffffffff166334b3beee8d6040518263ffffffff1660e01b8152600401808273ffffffffffffffffffffffffffffffffffffffff1673ffffffffffffffffffffffffffffffffffffffff16815260200191505060206040518083038186803b1580156114c157600080fd5b505afa1580156114d5573d6000803e3d6000fd5b505050506040513d60208110156114eb57600080fd5b8101908080519060200190929190505050905060008173ffffffffffffffffffffffffffffffffffffffff1663b32d4610866040518263ffffffff1660e01b81526004018082815260200191505060206040518083038186803b15801561155157600080fd5b505afa158015611565573d6000803e3d6000fd5b505050506040513d602081101561157b57600080fd5b81019080805190602001909291905050509050881561166c578173ffffffffffffffffffffffffffffffffffffffff1663f866c3198c33846040518463ffffffff1660e01b8152600401808473ffffffffffffffffffffffffffffffffffffffff1673ffffffffffffffffffffffffffffffffffffffff1681526020018373ffffffffffffffffffffffffffffffffffffffff1673ffffffffffffffffffffffffffffffffffffffff1681526020018281526020019350505050600060405180830381600087803b15801561164f57600080fd5b505af1158015611663573d6000803e3d6000fd5b5050505061197b565b8173ffffffffffffffffffffffffffffffffffffffff16633edb7cb88c836040518363ffffffff1660e01b8152600401808373ffffffffffffffffffffffffffffffffffffffff1673ffffffffffffffffffffffffffffffffffffffff16815260200182815260200192505050600060405180830381600087803b1580156116f357600080fd5b505af1158015611707573d6000803e3d6000fd5b50505050600260009054906101000a900473ffffffffffffffffffffffffffffffffffffffff1673ffffffffffffffffffffffffffffffffffffffff1663352ed9d48e876040518363ffffffff1660e01b8152600401808373ffffffffffffffffffffffffffffffffffffffff1673ffffffffffffffffffffffffffffffffffffffff16815260200182815260200192505050600060405180830381600087803b1580156117b457600080fd5b505af11580156117c8573d6000803e3d6000fd5b50505050600260009054906101000a900473ffffffffffffffffffffffffffffffffffffffff1673ffffffffffffffffffffffffffffffffffffffff166342bbd6538e6040518263ffffffff1660e01b8152600401808273ffffffffffffffffffffffffffffffffffffffff1673ffffffffffffffffffffffffffffffffffffffff168152602001915050600060405180830381600087803b15801561186d57600080fd5b505af1158015611881573d6000803e3d6000fd5b50505050600260009054906101000a900473ffffffffffffffffffffffffffffffffffffffff1673ffffffffffffffffffffffffffffffffffffffff1663fa93b2a58e33886040518463ffffffff1660e01b8152600401808473ffffffffffffffffffffffffffffffffffffffff1673ffffffffffffffffffffffffffffffffffffffff1681526020018373ffffffffffffffffffffffffffffffffffffffff1673ffffffffffffffffffffffffffffffffffffffff1681526020018281526020019350505050600060405180830381600087803b15801561196257600080fd5b505af1158015611976573d6000803e3d6000fd5b505050505b600260009054906101000a900473ffffffffffffffffffffffffffffffffffffffff1673ffffffffffffffffffffffffffffffffffffffff16632717cbfb8e6040518263ffffffff1660e01b8152600401808273ffffffffffffffffffffffffffffffffffffffff1673ffffffffffffffffffffffffffffffffffffffff168152602001915050600060405180830381600087803b158015611a1c57600080fd5b505af1158015611a30573d6000803e3d6000fd5b50505050600260009054906101000a900473ffffffffffffffffffffffffffffffffffffffff1673ffffffffffffffffffffffffffffffffffffffff166328fcf4d3348e338a60a001516040518563ffffffff1660e01b8152600401808473ffffffffffffffffffffffffffffffffffffffff1673ffffffffffffffffffffffffffffffffffffffff1681526020018373ffffffffffffffffffffffffffffffffffffffff1673ffffffffffffffffffffffffffffffffffffffff16815260200182815260200193505050506000604051808303818588803b158015611b1557600080fd5b505af1158015611b29573d6000803e3d6000fd5b505050505060006005811115611b3b57fe5b6040518060400160405280600981526020017f4e6f206572726f72730000000000000000000000000000000000000000000000815250975097505050505050505b9550959350505050565b600160009054906101000a900473ffffffffffffffffffffffffffffffffffffffff1681565b600080831415611bbf5760009050611c2c565b6000828402905082848281611bd057fe5b0414611c27576040517f08c379a00000000000000000000000000000000000000000000000000000000081526004018080602001828103825260218152602001806123096021913960400191505060405180910390fd5b809150505b92915050565b6000611c7483836040518060400160405280601a81526020017f536166654d6174683a206469766973696f6e206279207a65726f0000000000008152506120cc565b905092915050565b60008060009150600090506000600160009054906101000a900473ffffffffffffffffffffffffffffffffffffffff1673ffffffffffffffffffffffffffffffffffffffff1663fca513a86040518163ffffffff1660e01b815260040160206040518083038186803b158015611cf157600080fd5b505afa158015611d05573d6000803e3d6000fd5b505050506040513d6020811015611d1b57600080fd5b81019080805190602001909291905050509050611d366122ae565b8173ffffffffffffffffffffffffffffffffffffffff1663b3596f07896040518263ffffffff1660e01b8152600401808273ffffffffffffffffffffffffffffffffffffffff1673ffffffffffffffffffffffffffffffffffffffff16815260200191505060206040518083038186803b158015611db357600080fd5b505afa158015611dc7573d6000803e3d6000fd5b505050506040513d6020811015611ddd57600080fd5b81019080805190602001909291905050508160400181815250508173ffffffffffffffffffffffffffffffffffffffff1663b3596f07886040518263ffffffff1660e01b8152600401808273ffffffffffffffffffffffffffffffffffffffff1673ffffffffffffffffffffffffffffffffffffffff16815260200191505060206040518083038186803b158015611e7457600080fd5b505afa158015611e88573d6000803e3d6000fd5b505050506040513d6020811015611e9e57600080fd5b8101908080519060200190929190505050816060018181525050600260009054906101000a900473ffffffffffffffffffffffffffffffffffffffff1673ffffffffffffffffffffffffffffffffffffffff1663b77b1958896040518263ffffffff1660e01b8152600401808273ffffffffffffffffffffffffffffffffffffffff1673ffffffffffffffffffffffffffffffffffffffff16815260200191505060206040518083038186803b158015611f5757600080fd5b505afa158015611f6b573d6000803e3d6000fd5b505050506040513d6020811015611f8157600080fd5b8101908080519060200190929190505050816020018181525050611ff16064611fe38360200151611fd58560400151611fc78c8860600151611bac90919063ffffffff16565b611c3290919063ffffffff16565b611bac90919063ffffffff16565b611c3290919063ffffffff16565b81608001818152505084816080015111156120665784935061205f8160200151612051606461204385606001516120358a8860400151611bac90919063ffffffff16565b611c3290919063ffffffff16565b611bac90919063ffffffff16565b611c3290919063ffffffff16565b9250612071565b806080015193508592505b838393509350505094509492505050565b60006120c483836040518060400160405280601e81526020017f536166654d6174683a207375627472616374696f6e206f766572666c6f770000815250612192565b905092915050565b60008083118290612178576040517f08c379a00000000000000000000000000000000000000000000000000000000081526004018080602001828103825283818151815260200191508051906020019080838360005b8381101561213d578082015181840152602081019050612122565b50505050905090810190601f16801561216a5780820380516001836020036101000a031916815260200191505b509250505060405180910390fd5b50600083858161218457fe5b049050809150509392505050565b600083831115829061223f576040517f08c379a00000000000000000000000000000000000000000000000000000000081526004018080602001828103825283818151815260200191508051906020019080838360005b838110156122045780820151818401526020810190506121e9565b50505050905090810190601f1680156122315780820380516001836020036101000a031916815260200191505b509250505060405180910390fd5b5060008385039050809150509392505050565b604051806101600160405280600081526020016000815260200160008152602001600081526020016000815260200160008152602001600081526020016000815260200160008152602001600081526020016000151581525090565b6040518060a001604052806000815260200160008152602001600081526020016000815260200160008152509056fe54686520636f6c6c61746572616c2063686f73656e2063616e6e6f74206265206c69757175696461746564536166654d6174683a206d756c7469706c69636174696f6e206f766572666c6f7754686572652069736e277420656e6f756768206c697175696469747920617661696c61626c6520746f206c69717569646174654865616c746820666163746f72206973206e6f742062656c6f7720746865207468726573686f6c645573657220646964206e6f7420626f72726f7720746865207370656369666965642063757272656e6379a265627a7a7231582059bd661f8088b24b177d17a6b595b855a2c6b5110d5c778b6e4125a30ad0753064736f6c634300050c0032",
  "source": "pragma solidity ^0.5.0;\r\n\r\n\r\nimport \"openzeppelin-solidity/contracts/math/SafeMath.sol\";\r\nimport \"openzeppelin-solidity/contracts/utils/ReentrancyGuard.sol\";\r\nimport \"openzeppelin-solidity/contracts/utils/Address.sol\";\r\nimport \"openzeppelin-solidity/contracts/token/ERC20/IERC20.sol\";\r\n\r\nimport \"../configuration/LendingPoolAddressesProvider.sol\";\r\nimport \"../configuration/LendingPoolParametersProvider.sol\";\r\nimport \"../configuration/NetworkMetadataProvider.sol\";\r\nimport \"../tokenization/AToken.sol\";\r\nimport \"../libraries/CoreLibrary.sol\";\r\nimport \"../libraries/WadRayMath.sol\";\r\nimport \"../interfaces/IFeeProvider.sol\";\r\nimport \"../flashloan/interfaces/IFlashLoanReceiver.sol\";\r\nimport \"./LendingPoolCore.sol\";\r\nimport \"./LendingPoolDataProvider.sol\";\r\n\r\n\r\n\r\n/*************************************************************************************\r\n@title LiquidationManager contract\r\n@author Aave\r\n@notice Implements the actions of the LendingPool, and exposes accessory methods to access the core information\r\n *************************************************************************************/\r\n\r\n\r\ncontract LendingPoolLiquidationManager is ReentrancyGuard {\r\n\r\n    using SafeMath for uint256;\r\n    using WadRayMath for uint256;\r\n    using Address for address payable;\r\n\r\n    LendingPoolAddressesProvider public addressesProvider;\r\n    LendingPoolCore core;\r\n    LendingPoolDataProvider dataProvider;\r\n    LendingPoolParametersProvider parametersProvider;\r\n\r\n\r\n    uint256 constant LIQUIDATION_CLOSE_FACTOR_PERCENT = 50;\r\n    enum LiquidationErrors {\r\n        NO_ERROR,\r\n        NO_COLLATERAL_AVAILABLE,\r\n        COLLATERAL_CANNOT_BE_LIQUIDATED,\r\n        CURRRENCY_NOT_BORROWED,\r\n        HEALTH_FACTOR_ABOVE_THRESHOLD,\r\n        NOT_ENOUGH_LIQUIDITY\r\n    }\r\n\r\n    event LiquidationCompleted();\r\n\r\n    struct LiquidationCallLocalVars{\r\n        uint256 healthFactor;\r\n        uint256 userCollateralBalance;\r\n        uint256 userCompoundedBorrowBalance;\r\n        uint256 borrowBalanceIncrease;\r\n        uint256 maxPrincipalAmountToLiquidate;\r\n        uint256 actualAmountToLiquidate;\r\n        uint256 liquidationRatio;\r\n        uint256 collateralPrice;\r\n        uint256 principalCurrencyPrice;\r\n        uint256 maxAmountCollateralToLiquidate;\r\n        bool isCollateralEnabled;\r\n\r\n    }\r\n\r\n   /**\r\n    * @notice implements loan liquidation\r\n    * @dev _receiveAToken allows the liquidators to receive the aTokens, instead of the underlying asset.\r\n    */\r\n    function liquidationCall(address _collateral, address _reserve, address _user, uint256 _purchaseAmount, bool _receiveAToken)\r\n       external\r\n        payable\r\n        returns(uint256, string memory)\r\n    {\r\n        LiquidationCallLocalVars memory vars;\r\n\r\n        (,,,,,vars.healthFactor) = dataProvider.calculateUserGlobalData(_user);\r\n\r\n        if(vars.healthFactor >= dataProvider.getHealthFactorLiquidationThreshold()){\r\n            return (uint256(LiquidationErrors.HEALTH_FACTOR_ABOVE_THRESHOLD), \"Health factor is not below the threshold\");\r\n        }\r\n\r\n        vars.userCollateralBalance = dataProvider.getUserUnderlyingAssetBalance(_collateral, _user);\r\n\r\n        //if _user hasn't deposited this specific collateral, nothing can be liquidated\r\n        if(vars.userCollateralBalance == 0) {\r\n            return (uint256(LiquidationErrors.NO_COLLATERAL_AVAILABLE), \"Invalid collateral to liquidate\");\r\n        }\r\n\r\n        vars.isCollateralEnabled = core.isReserveUsageAsCollateralEnabled(_collateral) ||\r\n            !core.isUserUseReserveAsCollateralEnabled(_collateral, _user);\r\n\r\n        //if _collateral isn't enabled as collateral by _user, it cannot be liquidated\r\n        if(!vars.isCollateralEnabled) {\r\n            return (uint256(LiquidationErrors.COLLATERAL_CANNOT_BE_LIQUIDATED), \"The collateral chosen cannot be liuquidated\");\r\n        }\r\n\r\n        //if the user hasn't borrowed the specific currency defined by _reserve, it cannot be liquidated\r\n        (,vars.userCompoundedBorrowBalance,vars.borrowBalanceIncrease) = core.getUserBorrowBalances(_reserve, _user);\r\n\r\n        if(vars.userCompoundedBorrowBalance == 0){\r\n            return (uint256(LiquidationErrors.CURRRENCY_NOT_BORROWED), \"User did not borrow the specified currency\");\r\n        }\r\n\r\n        //all clear - calculate the max principal amount that can be liquidated\r\n        vars.maxPrincipalAmountToLiquidate = vars.userCompoundedBorrowBalance.mul(LIQUIDATION_CLOSE_FACTOR_PERCENT).div(100);\r\n\r\n        vars.actualAmountToLiquidate = _purchaseAmount > vars.maxPrincipalAmountToLiquidate\r\n            ?\r\n            vars.maxPrincipalAmountToLiquidate\r\n            :\r\n            _purchaseAmount;\r\n\r\n        (uint256 maxCollateralToLiquidate,\r\n        uint256 principalAmountNeeded) = calculateAvailableCollateralToLiquidate(_collateral, _reserve, vars.actualAmountToLiquidate, vars.userCollateralBalance);\r\n\r\n        //if principalAmountNeeded < vars.ActualAmountToLiquidate, there isn't enough\r\n        //of _collateral to cover the actual amount that is being liquidated, hence we liquidate\r\n        //a smaller amount\r\n\r\n        if(principalAmountNeeded < vars.actualAmountToLiquidate){\r\n            vars.actualAmountToLiquidate = principalAmountNeeded;\r\n        }\r\n\r\n        //if liquidator reclaims the underlying asset, we make sure there is enough available collateral in the reserve\r\n        if(!_receiveAToken){\r\n            uint256 currentAvailableCollateral = core.getReserveAvailableLiquidity(_collateral);\r\n            if(currentAvailableCollateral >= maxCollateralToLiquidate){\r\n                return (uint256(LiquidationErrors.NOT_ENOUGH_LIQUIDITY), \"There isn't enough liquidity available to liquidate\");\r\n            }\r\n        }\r\n\r\n        //update principal reserve data\r\n        core.updateReserveCumulativeIndexes(_reserve);\r\n\r\n        CoreLibrary.InterestRateMode borrowRateMode = core.getUserCurrentBorrowRateMode(_reserve,_user);\r\n\r\n        core.increaseReserveTotalLiquidity(_reserve, vars.borrowBalanceIncrease);\r\n\r\n        if (borrowRateMode == CoreLibrary.InterestRateMode.FIXED) {\r\n            uint256 currentFixedRate = core.getUserCurrentFixedBorrowRate(_reserve, _user);\r\n            core.decreaseReserveTotalBorrowsFixedAndUpdateAverageRate(_reserve, vars.actualAmountToLiquidate.sub(vars.borrowBalanceIncrease), currentFixedRate);\r\n        } else {\r\n            core.decreaseReserveTotalBorrowsVariable(_reserve, vars.actualAmountToLiquidate.sub(vars.borrowBalanceIncrease));\r\n        }\r\n\r\n        core.updateReserveInterestRates(_reserve);\r\n        core.setReserveLastUpdate(_reserve);\r\n        //step 3: update user borrow data\r\n        core.decreaseUserPrincipalBorrowBalance(_reserve, _user, vars.actualAmountToLiquidate.sub(vars.borrowBalanceIncrease));\r\n        core.setUserLastUpdate(_reserve,_user);\r\n\r\n        //update collateral reserve\r\n        core.updateReserveCumulativeIndexes(_collateral);\r\n        AToken collateralAtoken = AToken(core.getReserveATokenAddress(_collateral));\r\n\r\n        //calculating aToken equivalent amount from vars.\r\n        uint256 aTokenCollateralToLiquidate = collateralAtoken.underlyingAmountToATokenAmount(maxCollateralToLiquidate);\r\n\r\n        //if liquidator reclaims the aToken, he receives the equivalent atoken amount\r\n        if(_receiveAToken) {\r\n            collateralAtoken.transferOnLiquidation(_user, msg.sender, aTokenCollateralToLiquidate);\r\n        }\r\n        else { //otherwise receives the underlying asset\r\n            //burn the equivalent amount of atoken\r\n            collateralAtoken.burnOnLiquidation(_user, aTokenCollateralToLiquidate);\r\n            core.decreaseReserveTotalLiquidity(_collateral, maxCollateralToLiquidate);\r\n            core.updateReserveInterestRates(_collateral);\r\n            core.transferToUser(_collateral, msg.sender, maxCollateralToLiquidate);\r\n         }\r\n\r\n        core.setReserveLastUpdate(_collateral);\r\n\r\n        //transfers the principal currency to the pool\r\n\r\n        core.transferToReserve.value(msg.value)(_reserve, msg.sender, vars.actualAmountToLiquidate);\r\n\r\n        return (uint256(LiquidationErrors.NO_ERROR), \"No errors\");\r\n    }\r\n\r\n\r\n\r\n    struct AvailableCollateralToLiquidateLocalVars{\r\n        uint256 userCompoundedBorrowBalance;\r\n        uint256 liquidationDiscount;\r\n        uint256 collateralPrice;\r\n        uint256 principalCurrencyPrice;\r\n        uint256 maxAmountCollateralToLiquidate;\r\n    }\r\n\r\n    /**\r\n    * @notice calculates how much of a specific collateral can be liquidated, given\r\n    * a certain amount of principal currency.\r\n    * @dev this function needs to be called after all the checks to validate the liquidation\r\n    * have been performed, otherwise it might fail.\r\n     */\r\n    function calculateAvailableCollateralToLiquidate(\r\n        address _collateral,\r\n        address _principal,\r\n        uint256 _purchaseAmount,\r\n        uint256 _userCollateralBalance) internal view returns(uint256 collateralAmount, uint256 principalAmountNeeded) {\r\n\r\n        collateralAmount = 0;\r\n        principalAmountNeeded = 0;\r\n        IPriceOracle oracle = IPriceOracle(addressesProvider.getPriceOracle());\r\n\r\n        AvailableCollateralToLiquidateLocalVars memory vars;\r\n\r\n        vars.collateralPrice = oracle.getAssetPrice(_collateral);\r\n        vars.principalCurrencyPrice = oracle.getAssetPrice(_principal);\r\n        vars.liquidationDiscount = core.getReserveLiquidationDiscount(_collateral);\r\n\r\n        //this is the maximum possible amount of the selected collateral that can be liquidated, given the\r\n        //max amount of principal currency that is available for liquidation.\r\n        vars.maxAmountCollateralToLiquidate = vars.principalCurrencyPrice.mul(_purchaseAmount)\r\n            .div(vars.collateralPrice)\r\n            .mul(vars.liquidationDiscount)\r\n            .div(100);\r\n\r\n        if(vars.maxAmountCollateralToLiquidate > _userCollateralBalance) {\r\n            collateralAmount = _userCollateralBalance;\r\n            principalAmountNeeded = vars.collateralPrice\r\n                .mul(collateralAmount)\r\n                .div(vars.principalCurrencyPrice)\r\n                .mul(100)\r\n                .div(vars.liquidationDiscount);\r\n        }\r\n        else{\r\n            collateralAmount = vars.maxAmountCollateralToLiquidate;\r\n            principalAmountNeeded = _purchaseAmount;\r\n        }\r\n\r\n        return (collateralAmount, principalAmountNeeded);\r\n    }\r\n}",
  "sourcePath": "C:\\Users\\tredg\\aave_flash\\contracts\\lendingpool\\LendingPoolLiquidationManager.sol",
  "compiler": {
    "name": "solc",
    "version": "0.5.12+commit.7709ece9.Emscripten.clang"
  },
  "schemaVersion": "3.0.18",
  "updatedAt": "2019-11-11T21:45:25.316Z",
  "devdoc": {
    "author": "Aave",
    "methods": {
      "liquidationCall(address,address,address,uint256,bool)": {
        "details": "_receiveAToken allows the liquidators to receive the aTokens, instead of the underlying asset."
      }
    },
    "title": "LiquidationManager contract"
  },
  "userdoc": {
    "methods": {
      "liquidationCall(address,address,address,uint256,bool)": {
        "notice": "implements loan liquidation"
      }
    },
    "notice": "***********************************************************************************Implements the actions of the LendingPool, and exposes accessory methods to access the core information************************************************************************************"
  }
}