{
  "contractName": "PriceOracle",
  "abi": [
    {
      "constant": true,
      "inputs": [
        {
          "internalType": "address",
          "name": "_asset",
          "type": "address"
        }
      ],
      "name": "getAssetPrice",
      "outputs": [
        {
          "internalType": "uint256",
          "name": "",
          "type": "uint256"
        }
      ],
      "payable": false,
      "stateMutability": "view",
      "type": "function"
    },
    {
      "constant": false,
      "inputs": [
        {
          "internalType": "address",
          "name": "_asset",
          "type": "address"
        },
        {
          "internalType": "uint256",
          "name": "_price",
          "type": "uint256"
        }
      ],
      "name": "setAssetPrice",
      "outputs": [],
      "payable": false,
      "stateMutability": "nonpayable",
      "type": "function"
    },
    {
      "constant": true,
      "inputs": [],
      "name": "getEthUsdPrice",
      "outputs": [
        {
          "internalType": "uint256",
          "name": "",
          "type": "uint256"
        }
      ],
      "payable": false,
      "stateMutability": "view",
      "type": "function"
    },
    {
      "constant": false,
      "inputs": [
        {
          "internalType": "uint256",
          "name": "_price",
          "type": "uint256"
        }
      ],
      "name": "setEthUsdPrice",
      "outputs": [],
      "payable": false,
      "stateMutability": "nonpayable",
      "type": "function"
    }
  ],
  "bytecode": "0x608060405234801561001057600080fd5b5061021b806100206000396000f3fe608060405234801561001057600080fd5b506004361061004c5760003560e01c806351323f7214610051578063a0a8045e1461009f578063b3596f07146100bd578063b951883a14610115575b600080fd5b61009d6004803603604081101561006757600080fd5b81019080803573ffffffffffffffffffffffffffffffffffffffff16906020019092919080359060200190929190505050610143565b005b6100a761018a565b6040518082815260200191505060405180910390f35b6100ff600480360360208110156100d357600080fd5b81019080803573ffffffffffffffffffffffffffffffffffffffff169060200190929190505050610194565b6040518082815260200191505060405180910390f35b6101416004803603602081101561012b57600080fd5b81019080803590602001909291905050506101dc565b005b806000808473ffffffffffffffffffffffffffffffffffffffff1673ffffffffffffffffffffffffffffffffffffffff168152602001908152602001600020819055505050565b6000600154905090565b60008060008373ffffffffffffffffffffffffffffffffffffffff1673ffffffffffffffffffffffffffffffffffffffff168152602001908152602001600020549050919050565b806001819055505056fea265627a7a723158207b1b310af3f6f6929f2b93c8261f1d388345bc27f0423ff9b8fecc19b2bd194b64736f6c634300050c0032",
  "source": "pragma solidity ^0.5.0;\r\n\r\nimport \"../../interfaces/IPriceOracle.sol\";\r\n\r\n\r\ncontract PriceOracle is IPriceOracle {\r\n\r\n    mapping(address => uint) prices;\r\n    uint ethPriceUsd;\r\n\r\n    function getAssetPrice(address _asset) external view returns(uint) {\r\n        return prices[_asset];\r\n    }\r\n\r\n    function setAssetPrice(address _asset, uint _price) external {\r\n        prices[_asset] = _price;\r\n    }\r\n\r\n    function getEthUsdPrice() external view returns(uint) {\r\n        return ethPriceUsd;\r\n    }\r\n\r\n    function setEthUsdPrice(uint _price) external {\r\n        ethPriceUsd = _price;\r\n    }\r\n}",
  "sourcePath": "C:/Users/tredg/aave_flash/contracts/mocks/Oracle/PriceOracle.sol",
  "compiler": {
    "name": "solc",
    "version": "0.5.12+commit.7709ece9.Emscripten.clang"
  },
  "schemaVersion": "3.0.18",
  "updatedAt": "2019-11-10T09:13:15.161Z",
  "devdoc": {
    "methods": {}
  },
  "userdoc": {
    "methods": {}
  }
}