{
  "contractName": "UintStorage",
  "abi": [
    {
      "constant": true,
      "inputs": [
        {
          "internalType": "bytes32",
          "name": "_key",
          "type": "bytes32"
        }
      ],
      "name": "getUint",
      "outputs": [
        {
          "internalType": "uint256",
          "name": "",
          "type": "uint256"
        }
      ],
      "payable": false,
      "stateMutability": "view",
      "type": "function"
    }
  ],
  "bytecode": "0x6080604052348015600f57600080fd5b5060bd8061001e6000396000f3fe6080604052348015600f57600080fd5b506004361060285760003560e01c8063bd02d0f514602d575b600080fd5b605660048036036020811015604157600080fd5b8101908080359060200190929190505050606c565b6040518082815260200191505060405180910390f35b600080600083815260200190815260200160002054905091905056fea265627a7a72315820eb1f68da3228eb36e6349566059191d8c8f4abe39d468c36de8b84e27f25afd564736f6c634300050c0032",
  "source": "pragma solidity ^0.5.0;\r\n\r\ncontract UintStorage {\r\n    mapping(bytes32 => uint256) private uints;\r\n\r\n    function getUint(bytes32 _key) public view returns (uint256) {\r\n        return uints[_key];\r\n    }\r\n\r\n    function _setUint(bytes32 _key, uint256 _value) internal {\r\n        uints[_key] = _value;\r\n    }\r\n\r\n}\r\n",
  "sourcePath": "C:\\Users\\tredg\\aave_flash\\contracts\\configuration\\UintStorage.sol",
  "compiler": {
    "name": "solc",
    "version": "0.5.12+commit.7709ece9.Emscripten.clang"
  },
  "schemaVersion": "3.0.18",
  "updatedAt": "2019-11-11T21:45:25.058Z",
  "devdoc": {
    "methods": {}
  },
  "userdoc": {
    "methods": {}
  }
}