{
  "contractName": "WalletBalanceProvider",
  "abi": [
    {
      "inputs": [
        {
          "internalType": "contract LendingPoolAddressesProvider",
          "name": "_provider",
          "type": "address"
        }
      ],
      "payable": false,
      "stateMutability": "nonpayable",
      "type": "constructor"
    },
    {
      "payable": true,
      "stateMutability": "payable",
      "type": "fallback"
    },
    {
      "constant": true,
      "inputs": [
        {
          "internalType": "address",
          "name": "_user",
          "type": "address"
        },
        {
          "internalType": "address",
          "name": "_token",
          "type": "address"
        }
      ],
      "name": "balanceOf",
      "outputs": [
        {
          "internalType": "uint256",
          "name": "",
          "type": "uint256"
        }
      ],
      "payable": false,
      "stateMutability": "view",
      "type": "function"
    },
    {
      "constant": true,
      "inputs": [
        {
          "internalType": "address",
          "name": "_user",
          "type": "address"
        }
      ],
      "name": "getUserWalletBalances",
      "outputs": [
        {
          "internalType": "address[]",
          "name": "",
          "type": "address[]"
        },
        {
          "internalType": "uint256[]",
          "name": "",
          "type": "uint256[]"
        }
      ],
      "payable": false,
      "stateMutability": "view",
      "type": "function"
    }
  ],
  "bytecode": "0x608060405234801561001057600080fd5b5060405161081f38038061081f8339818101604052602081101561003357600080fd5b8101908080519060200190929190505050806000806101000a81548173ffffffffffffffffffffffffffffffffffffffff021916908373ffffffffffffffffffffffffffffffffffffffff1602179055505061078b806100946000396000f3fe6080604052600436106100295760003560e01c80639e3c93091461007a578063f7888aec14610168575b6040517f08c379a000000000000000000000000000000000000000000000000000000000815260040180806020018281038252602e815260200180610729602e913960400191505060405180910390fd5b34801561008657600080fd5b506100c96004803603602081101561009d57600080fd5b81019080803573ffffffffffffffffffffffffffffffffffffffff1690602001909291905050506101ed565b604051808060200180602001838103835285818151815260200191508051906020019060200280838360005b838110156101105780820151818401526020810190506100f5565b50505050905001838103825284818151815260200191508051906020019060200280838360005b83811015610152578082015181840152602081019050610137565b5050505090500194505050505060405180910390f35b34801561017457600080fd5b506101d76004803603604081101561018b57600080fd5b81019080803573ffffffffffffffffffffffffffffffffffffffff169060200190929190803573ffffffffffffffffffffffffffffffffffffffff1690602001909291905050506105ed565b6040518082815260200191505060405180910390f35b60608060008060009054906101000a900473ffffffffffffffffffffffffffffffffffffffff1673ffffffffffffffffffffffffffffffffffffffff1663ed6ff7606040518163ffffffff1660e01b815260040160206040518083038186803b15801561025957600080fd5b505afa15801561026d573d6000803e3d6000fd5b505050506040513d602081101561028357600080fd5b8101908080519060200190929190505050905060608173ffffffffffffffffffffffffffffffffffffffff16630902f1ac6040518163ffffffff1660e01b815260040160006040518083038186803b1580156102de57600080fd5b505afa1580156102f2573d6000803e3d6000fd5b505050506040513d6000823e3d601f19601f82011682018060405250602081101561031c57600080fd5b810190808051604051939291908464010000000082111561033c57600080fd5b8382019150602082018581111561035257600080fd5b825186602082028301116401000000008211171561036f57600080fd5b8083526020830192505050908051906020019060200280838360005b838110156103a657808201518184015260208101905061038b565b50505050905001604052505050905060008060009054906101000a900473ffffffffffffffffffffffffffffffffffffffff1673ffffffffffffffffffffffffffffffffffffffff1663b5722bb56040518163ffffffff1660e01b815260040160206040518083038186803b15801561041e57600080fd5b505afa158015610432573d6000803e3d6000fd5b505050506040513d602081101561044857600080fd5b810190808051906020019092919050505073ffffffffffffffffffffffffffffffffffffffff166317bfdd576040518163ffffffff1660e01b815260040160206040518083038186803b15801561049e57600080fd5b505afa1580156104b2573d6000803e3d6000fd5b505050506040513d60208110156104c857600080fd5b810190808051906020019092919050505090506060825160405190808252806020026020018201604052801561050d5781602001602082028038833980820191505090505b50905060008090505b83518110156105dd578273ffffffffffffffffffffffffffffffffffffffff1684828151811061054257fe5b602002602001015173ffffffffffffffffffffffffffffffffffffffff161461059f576105828885838151811061057557fe5b60200260200101516105ed565b82828151811061058e57fe5b6020026020010181815250506105d0565b8773ffffffffffffffffffffffffffffffffffffffff16318282815181106105c357fe5b6020026020010181815250505b8080600101915050610516565b5082819550955050505050915091565b600061060e8273ffffffffffffffffffffffffffffffffffffffff166106dd565b156106d2578173ffffffffffffffffffffffffffffffffffffffff166370a08231846040518263ffffffff1660e01b8152600401808273ffffffffffffffffffffffffffffffffffffffff1673ffffffffffffffffffffffffffffffffffffffff16815260200191505060206040518083038186803b15801561069057600080fd5b505afa1580156106a4573d6000803e3d6000fd5b505050506040513d60208110156106ba57600080fd5b810190808051906020019092919050505090506106d7565b600090505b92915050565b60008060007fc5d2460186f7233c927e7db2dcc703c0e500b653ca82273b7bfad8045d85a47060001b9050833f91506000801b821415801561071f5750808214155b9250505091905056fe57616c6c657442616c616e636550726f766964657220646f6573206e6f7420616363657074207061796d656e7473a265627a7a72315820535438912464363598e36ef39482c93a48e6d1f7736890b240ebf554c85ae46f64736f6c634300050c0032",
  "source": "pragma solidity ^0.5.0;\r\n\r\nimport \"openzeppelin-solidity/contracts/utils/Address.sol\";\r\nimport \"openzeppelin-solidity/contracts/token/ERC20/IERC20.sol\";\r\n\r\nimport \"../configuration/LendingPoolAddressesProvider.sol\";\r\nimport \"../lendingpool/LendingPoolCore.sol\";\r\nimport \"../interfaces/INetworkMetadataProvider.sol\";\r\n\r\n\r\n/*************************************************************************************\r\n@title WalletBalanceProvider contract\r\n@author Aave, influenced by https://github.com/wbobeirne/eth-balance-checker/blob/master/contracts/BalanceChecker.sol\r\n@notice Implements a logic of getting multiple tokens balance for one user address\r\n\r\n@dev NOTE: THIS CONTRACT IS NOT USED WITHIN THE AAVE PROTOCOL. It's an accessory contract used to reduce the number of calls\r\ntowards the blockchain.\r\n\r\n *************************************************************************************/\r\n\r\n\r\ncontract WalletBalanceProvider {\r\n\r\n    using Address for address;\r\n\r\n    LendingPoolAddressesProvider provider;\r\n\r\n    constructor(LendingPoolAddressesProvider _provider) public {\r\n\r\n        provider = _provider;\r\n\r\n    }\r\n    /**\r\n    @dev Fallback function, don't accept any ETH\r\n    **/\r\n    function() external payable {\r\n        revert(\"WalletBalanceProvider does not accept payments\");\r\n    }\r\n\r\n    /**\r\n    @dev Check the token balance of a wallet in a token contract\r\n\r\n    Returns the balance of the token for user. Avoids possible errors:\r\n      - return 0 on non-contract address\r\n    **/\r\n    function balanceOf(address _user, address _token) public view returns (uint) {\r\n        // check if token is actually a contract\r\n        if (_token.isContract()) {\r\n            return IERC20(_token).balanceOf(_user);\r\n        } else {\r\n            return 0;\r\n        }\r\n    }\r\n\r\n\r\n    /**\r\n    @dev provides balances of user wallet for all reserves available on the pool\r\n    */\r\n    function getUserWalletBalances(address _user) public view returns (address[] memory, uint[] memory) {\r\n\r\n        LendingPoolCore core = LendingPoolCore(provider.getLendingPoolCore());\r\n\r\n        address[] memory reserves = core.getReserves();\r\n        address ethereumAddress = INetworkMetadataProvider(provider.getNetworkMetadataProvider()).getEthereumAddress();\r\n\r\n        uint[] memory balances = new uint[](reserves.length);\r\n\r\n        for (uint j = 0; j < reserves.length; j++) {\r\n            if (reserves[j] != ethereumAddress) {\r\n                balances[j] = balanceOf(_user, reserves[j]);\r\n            } else {\r\n                balances[j] = _user.balance; // ETH balance\r\n            }\r\n        }\r\n\r\n        return (reserves, balances);\r\n    }\r\n}",
  "sourcePath": "C:/Users/tredg/aave_flash/contracts/misc/WalletBalanceProvider.sol",
  "compiler": {
    "name": "solc",
    "version": "0.5.12+commit.7709ece9.Emscripten.clang"
  },
  "schemaVersion": "3.0.18",
  "updatedAt": "2019-11-10T09:13:15.112Z",
  "devdoc": {
    "author": "Aave, influenced by https://github.com/wbobeirne/eth-balance-checker/blob/master/contracts/BalanceChecker.sol",
    "details": "NOTE: THIS CONTRACT IS NOT USED WITHIN THE AAVE PROTOCOL. It's an accessory contract used to reduce the number of calls towards the blockchain.************************************************************************************",
    "methods": {
      "balanceOf(address,address)": {
        "details": "Check the token balance of a wallet in a token contract Returns the balance of the token for user. Avoids possible errors: - return 0 on non-contract address*"
      },
      "getUserWalletBalances(address)": {
        "details": "provides balances of user wallet for all reserves available on the pool"
      }
    },
    "title": "WalletBalanceProvider contract"
  },
  "userdoc": {
    "methods": {},
    "notice": "***********************************************************************************Implements a logic of getting multiple tokens balance for one user address"
  }
}